{
  "contractName": "SnappBase",
  "abi": [
    {
      "constant": true,
      "inputs": [
        {
          "name": "",
          "type": "uint8"
        }
      ],
      "name": "tokenIdToAddressMap",
      "outputs": [
        {
          "name": "",
          "type": "address"
        }
      ],
      "payable": false,
      "stateMutability": "view",
      "type": "function"
    },
    {
      "constant": false,
      "inputs": [],
      "name": "renounceOwnership",
      "outputs": [],
      "payable": false,
      "stateMutability": "nonpayable",
      "type": "function"
    },
    {
      "constant": true,
      "inputs": [],
      "name": "MAX_DEPOSIT_BATCH",
      "outputs": [
        {
          "name": "",
          "type": "uint16"
        }
      ],
      "payable": false,
      "stateMutability": "view",
      "type": "function"
    },
    {
      "constant": true,
      "inputs": [],
      "name": "depositIndex",
      "outputs": [
        {
          "name": "",
          "type": "uint256"
        }
      ],
      "payable": false,
      "stateMutability": "view",
      "type": "function"
    },
    {
      "constant": true,
      "inputs": [],
      "name": "MAX_ACCOUNT_ID",
      "outputs": [
        {
          "name": "",
          "type": "uint16"
        }
      ],
      "payable": false,
      "stateMutability": "view",
      "type": "function"
    },
    {
      "constant": true,
      "inputs": [
        {
          "name": "",
          "type": "uint16"
        }
      ],
      "name": "accountToPublicKeyMap",
      "outputs": [
        {
          "name": "",
          "type": "address"
        }
      ],
      "payable": false,
      "stateMutability": "view",
      "type": "function"
    },
    {
      "constant": true,
      "inputs": [],
      "name": "owner",
      "outputs": [
        {
          "name": "",
          "type": "address"
        }
      ],
      "payable": false,
      "stateMutability": "view",
      "type": "function"
    },
    {
      "constant": true,
      "inputs": [],
      "name": "numTokens",
      "outputs": [
        {
          "name": "",
          "type": "uint8"
        }
      ],
      "payable": false,
      "stateMutability": "view",
      "type": "function"
    },
    {
      "constant": true,
      "inputs": [],
      "name": "isOwner",
      "outputs": [
        {
          "name": "",
          "type": "bool"
        }
      ],
      "payable": false,
      "stateMutability": "view",
      "type": "function"
    },
    {
      "constant": true,
      "inputs": [
        {
          "name": "",
          "type": "address"
        }
      ],
      "name": "tokenAddresToIdMap",
      "outputs": [
        {
          "name": "",
          "type": "uint8"
        }
      ],
      "payable": false,
      "stateMutability": "view",
      "type": "function"
    },
    {
      "constant": true,
      "inputs": [
        {
          "name": "",
          "type": "address"
        }
      ],
      "name": "publicKeyToAccountMap",
      "outputs": [
        {
          "name": "",
          "type": "uint16"
        }
      ],
      "payable": false,
      "stateMutability": "view",
      "type": "function"
    },
    {
      "constant": true,
      "inputs": [
        {
          "name": "",
          "type": "uint256"
        }
      ],
      "name": "deposits",
      "outputs": [
        {
          "name": "size",
          "type": "uint16"
        },
        {
          "name": "shaHash",
          "type": "bytes32"
        },
        {
          "name": "creationBlock",
          "type": "uint256"
        },
        {
          "name": "appliedAccountStateIndex",
          "type": "uint256"
        }
      ],
      "payable": false,
      "stateMutability": "view",
      "type": "function"
    },
    {
      "constant": false,
      "inputs": [
        {
          "name": "newOwner",
          "type": "address"
        }
      ],
      "name": "transferOwnership",
      "outputs": [],
      "payable": false,
      "stateMutability": "nonpayable",
      "type": "function"
    },
    {
      "constant": true,
      "inputs": [],
      "name": "MAX_TOKENS",
      "outputs": [
        {
          "name": "",
          "type": "uint8"
        }
      ],
      "payable": false,
      "stateMutability": "view",
      "type": "function"
    },
    {
      "constant": true,
      "inputs": [
        {
          "name": "",
          "type": "uint256"
        }
      ],
      "name": "stateRoots",
      "outputs": [
        {
          "name": "",
          "type": "bytes32"
        }
      ],
      "payable": false,
      "stateMutability": "view",
      "type": "function"
    },
    {
      "inputs": [],
      "payable": false,
      "stateMutability": "nonpayable",
      "type": "constructor"
    },
    {
      "anonymous": false,
      "inputs": [
        {
          "indexed": false,
          "name": "accountId",
          "type": "uint16"
        },
        {
          "indexed": false,
          "name": "tokenId",
          "type": "uint8"
        },
        {
          "indexed": false,
          "name": "amount",
          "type": "uint256"
        },
        {
          "indexed": false,
          "name": "slot",
          "type": "uint256"
        },
        {
          "indexed": false,
          "name": "slotIndex",
          "type": "uint16"
        }
      ],
      "name": "Deposit",
      "type": "event"
    },
    {
      "anonymous": false,
      "inputs": [
        {
          "indexed": false,
          "name": "transitionType",
          "type": "uint8"
        },
        {
          "indexed": false,
          "name": "stateIndex",
          "type": "uint256"
        },
        {
          "indexed": false,
          "name": "stateHash",
          "type": "bytes32"
        },
        {
          "indexed": false,
          "name": "slot",
          "type": "uint256"
        }
      ],
      "name": "StateTransition",
      "type": "event"
    },
    {
      "anonymous": false,
      "inputs": [
        {
          "indexed": false,
          "name": "stateHash",
          "type": "bytes32"
        },
        {
          "indexed": false,
          "name": "maxTokens",
          "type": "uint8"
        },
        {
          "indexed": false,
          "name": "maxAccounts",
          "type": "uint16"
        }
      ],
      "name": "SnappInitialization",
      "type": "event"
    },
    {
      "anonymous": false,
      "inputs": [
        {
          "indexed": true,
          "name": "previousOwner",
          "type": "address"
        },
        {
          "indexed": true,
          "name": "newOwner",
          "type": "address"
        }
      ],
      "name": "OwnershipTransferred",
      "type": "event"
    },
    {
      "constant": false,
      "inputs": [
        {
          "name": "accountId",
          "type": "uint16"
        }
      ],
      "name": "openAccount",
      "outputs": [],
      "payable": false,
      "stateMutability": "nonpayable",
      "type": "function"
    },
    {
      "constant": false,
      "inputs": [
        {
          "name": "_tokenAddress",
          "type": "address"
        }
      ],
      "name": "addToken",
      "outputs": [],
      "payable": false,
      "stateMutability": "nonpayable",
      "type": "function"
    },
    {
      "constant": false,
      "inputs": [
        {
          "name": "tokenIndex",
          "type": "uint8"
        },
        {
          "name": "amount",
          "type": "uint256"
        }
      ],
      "name": "deposit",
      "outputs": [],
      "payable": false,
      "stateMutability": "nonpayable",
      "type": "function"
    },
    {
      "constant": true,
      "inputs": [],
      "name": "stateIndex",
      "outputs": [
        {
          "name": "",
          "type": "uint256"
        }
      ],
      "payable": false,
      "stateMutability": "view",
      "type": "function"
    },
    {
      "constant": false,
      "inputs": [
        {
          "name": "slot",
          "type": "uint256"
        },
        {
          "name": "_currStateRoot",
          "type": "bytes32"
        },
        {
          "name": "_newStateRoot",
          "type": "bytes32"
        },
        {
          "name": "_depositHash",
          "type": "bytes32"
        }
      ],
      "name": "applyDeposits",
      "outputs": [],
      "payable": false,
      "stateMutability": "nonpayable",
      "type": "function"
    },
    {
      "constant": true,
      "inputs": [
        {
          "name": "index",
          "type": "uint256"
        }
      ],
      "name": "hasDepositBeenApplied",
      "outputs": [
        {
          "name": "",
          "type": "bool"
        }
      ],
      "payable": false,
      "stateMutability": "view",
      "type": "function"
    },
    {
      "constant": true,
      "inputs": [
        {
          "name": "index",
          "type": "uint256"
        }
      ],
      "name": "isDepositSlotEmpty",
      "outputs": [
        {
          "name": "",
          "type": "bool"
        }
      ],
      "payable": false,
      "stateMutability": "view",
      "type": "function"
    },
    {
      "constant": true,
      "inputs": [],
      "name": "getCurrentStateRoot",
      "outputs": [
        {
          "name": "",
          "type": "bytes32"
        }
      ],
      "payable": false,
      "stateMutability": "view",
      "type": "function"
    },
    {
      "constant": true,
      "inputs": [
        {
          "name": "slot",
          "type": "uint256"
        }
      ],
      "name": "getDepositCreationBlock",
      "outputs": [
        {
          "name": "",
          "type": "uint256"
        }
      ],
      "payable": false,
      "stateMutability": "view",
      "type": "function"
    },
    {
      "constant": true,
      "inputs": [
        {
          "name": "slot",
          "type": "uint256"
        }
      ],
      "name": "getDepositHash",
      "outputs": [
        {
          "name": "",
          "type": "bytes32"
        }
      ],
      "payable": false,
      "stateMutability": "view",
      "type": "function"
    }
  ],
  "bytecode": "0x608060405234801561001057600080fd5b50336000806101000a81548173ffffffffffffffffffffffffffffffffffffffff021916908373ffffffffffffffffffffffffffffffffffffffff1602179055506000809054906101000a900473ffffffffffffffffffffffffffffffffffffffff1673ffffffffffffffffffffffffffffffffffffffff16600073ffffffffffffffffffffffffffffffffffffffff167f8be0079c531659141344cd1fd0a4f28419497f9722a3daafe3b4186f6b6457e060405160405180910390a360008060010290506001819080600181540180825580915050906001820390600052602060002001600090919290919091505550608060405190810160405280600061ffff16815260200160006001028152602001438152602001600081525060086000600754815260200190815260200160002060008201518160000160006101000a81548161ffff021916908361ffff1602179055506020820151816001015560408201518160020155606082015181600301559050507fe1da8c47dc4fbd0eefa87251c4c509097a6a709606f6e53831712771e174afdb81601e6064604051808481526020018360ff1660ff1681526020018261ffff1661ffff168152602001935050505060405180910390a150611ed8806101ed6000396000f3fe608060405260043610610149576000357c0100000000000000000000000000000000000000000000000000000000900463ffffffff1680634383af5b1461014e578063497024c2146101a15780636a2e4b2e1461021f5780636c8629c01461024a578063715018a6146102995780637b48090e146102b05780637b898939146102e357806380d839b11461030e57806389a72497146103415780638a9ffe22146103c05780638b8e3c8b146104195780638da5cb5b1461046c5780638e499bcf146104c35780638f32d59b146104f45780639067d7b41461052357806393066f931461058e578063974af738146105fb578063a67e02ee14610626578063b02c43d014610665578063d48bfca7146106d1578063e880696a14610722578063f2fde38b14610771578063f47c84c5146107c2578063f4cac30d146107f3578063f4d4c9d714610842575b600080fd5b34801561015a57600080fd5b506101876004803603602081101561017157600080fd5b810190808035906020019092919050505061088a565b604051808215151515815260200191505060405180910390f35b3480156101ad57600080fd5b506101dd600480360360208110156101c457600080fd5b81019080803560ff1690602001909291905050506108af565b604051808273ffffffffffffffffffffffffffffffffffffffff1673ffffffffffffffffffffffffffffffffffffffff16815260200191505060405180910390f35b34801561022b57600080fd5b506102346108e2565b6040518082815260200191505060405180910390f35b34801561025657600080fd5b506102836004803603602081101561026d57600080fd5b81019080803590602001909291905050506108f1565b6040518082815260200191505060405180910390f35b3480156102a557600080fd5b506102ae610911565b005b3480156102bc57600080fd5b506102c56109e3565b604051808261ffff1661ffff16815260200191505060405180910390f35b3480156102ef57600080fd5b506102f86109e8565b6040518082815260200191505060405180910390f35b34801561031a57600080fd5b506103236109ee565b604051808261ffff1661ffff16815260200191505060405180910390f35b34801561034d57600080fd5b5061037e6004803603602081101561036457600080fd5b81019080803561ffff1690602001909291905050506109f3565b604051808273ffffffffffffffffffffffffffffffffffffffff1673ffffffffffffffffffffffffffffffffffffffff16815260200191505060405180910390f35b3480156103cc57600080fd5b50610417600480360360808110156103e357600080fd5b8101908080359060200190929190803590602001909291908035906020019092919080359060200190929190505050610a26565b005b34801561042557600080fd5b506104526004803603602081101561043c57600080fd5b8101908080359060200190929190505050610ebd565b604051808215151515815260200191505060405180910390f35b34801561047857600080fd5b50610481610ee0565b604051808273ffffffffffffffffffffffffffffffffffffffff1673ffffffffffffffffffffffffffffffffffffffff16815260200191505060405180910390f35b3480156104cf57600080fd5b506104d8610f09565b604051808260ff1660ff16815260200191505060405180910390f35b34801561050057600080fd5b50610509610f1c565b604051808215151515815260200191505060405180910390f35b34801561052f57600080fd5b506105726004803603602081101561054657600080fd5b81019080803573ffffffffffffffffffffffffffffffffffffffff169060200190929190505050610f73565b604051808260ff1660ff16815260200191505060405180910390f35b34801561059a57600080fd5b506105dd600480360360208110156105b157600080fd5b81019080803573ffffffffffffffffffffffffffffffffffffffff169060200190929190505050610f93565b604051808261ffff1661ffff16815260200191505060405180910390f35b34801561060757600080fd5b50610610610fb4565b6040518082815260200191505060405180910390f35b34801561063257600080fd5b506106636004803603602081101561064957600080fd5b81019080803561ffff169060200190929190505050610fdc565b005b34801561067157600080fd5b5061069e6004803603602081101561068857600080fd5b8101908080359060200190929190505050611339565b604051808561ffff1661ffff16815260200184815260200183815260200182815260200194505050505060405180910390f35b3480156106dd57600080fd5b50610720600480360360208110156106f457600080fd5b81019080803573ffffffffffffffffffffffffffffffffffffffff169060200190929190505050611377565b005b34801561072e57600080fd5b5061075b6004803603602081101561074557600080fd5b81019080803590602001909291905050506115eb565b6040518082815260200191505060405180910390f35b34801561077d57600080fd5b506107c06004803603602081101561079457600080fd5b81019080803573ffffffffffffffffffffffffffffffffffffffff16906020019092919050505061160b565b005b3480156107ce57600080fd5b506107d761162a565b604051808260ff1660ff16815260200191505060405180910390f35b3480156107ff57600080fd5b5061082c6004803603602081101561081657600080fd5b810190808035906020019092919050505061162f565b6040518082815260200191505060405180910390f35b34801561084e57600080fd5b506108886004803603604081101561086557600080fd5b81019080803560ff16906020019092919080359060200190929190505050611652565b005b6000806001026008600084815260200190815260200160002060010154149050919050565b60066020528060005260406000206000915054906101000a900473ffffffffffffffffffffffffffffffffffffffff1681565b60006001808054905003905090565b600060086000838152602001908152602001600020600201549050919050565b610919610f1c565b151561092457600080fd5b600073ffffffffffffffffffffffffffffffffffffffff166000809054906101000a900473ffffffffffffffffffffffffffffffffffffffff1673ffffffffffffffffffffffffffffffffffffffff167f8be0079c531659141344cd1fd0a4f28419497f9722a3daafe3b4186f6b6457e060405160405180910390a360008060006101000a81548173ffffffffffffffffffffffffffffffffffffffff021916908373ffffffffffffffffffffffffffffffffffffffff160217905550565b606481565b60075481565b606481565b60036020528060005260406000206000915054906101000a900473ffffffffffffffffffffffffffffffffffffffff1681565b610a2e610f1c565b1515610a3957600080fd5b6007548411151515610ad9576040517f08c379a00000000000000000000000000000000000000000000000000000000081526004018080602001828103825260258152602001807f526571756573746564206465706f73697420736c6f7420646f6573206e6f742081526020017f657869737400000000000000000000000000000000000000000000000000000081525060400191505060405180910390fd5b6000841480610b0257506000600860006001870381526020019081526020016000206003015414155b1515610b9c576040517f08c379a00000000000000000000000000000000000000000000000000000000081526004018080602001828103825260228152602001807f4d757374206170706c79206465706f73697420736c6f747320696e206f72646581526020017f722100000000000000000000000000000000000000000000000000000000000081525060400191505060405180910390fd5b806008600086815260200190815260200160002060010154141515610c29576040517f08c379a000000000000000000000000000000000000000000000000000000000815260040180806020018281038252601a8152602001807f4465706f736974732068617665206265656e2072656f7267656400000000000081525060200191505060405180910390fd5b60006008600086815260200190815260200160002060030154141515610cb7576040517f08c379a000000000000000000000000000000000000000000000000000000000815260040180806020018281038252601a8152602001807f4465706f7369747320616c72656164792070726f63657373656400000000000081525060200191505060405180910390fd5b601460086000868152602001908152602001600020600201540143111515610d6d576040517f08c379a00000000000000000000000000000000000000000000000000000000081526004018080602001828103825260268152602001807f526571756573746564206465706f73697420736c6f74206973207374696c6c2081526020017f616374697665000000000000000000000000000000000000000000000000000081525060400191505060405180910390fd5b826001610d786108e2565b815481101515610d8457fe5b9060005260206000200154141515610e04576040517f08c379a00000000000000000000000000000000000000000000000000000000081526004018080602001828103825260148152602001807f496e636f727265637420537461746520526f6f7400000000000000000000000081525060200191505060405180910390fd5b6001829080600181540180825580915050906001820390600052602060002001600090919290919091505550610e386108e2565b60086000868152602001908152602001600020600301819055507f3226fdc3b71ca91a95959d6392681cb982b51fc63db71eafc2ad3753edff7f846000610e7d6108e2565b848760405180856002811115610e8f57fe5b60ff16815260200184815260200183815260200182815260200194505050505060405180910390a150505050565b600080600860008481526020019081526020016000206003015414159050919050565b60008060009054906101000a900473ffffffffffffffffffffffffffffffffffffffff16905090565b600460009054906101000a900460ff1681565b60008060009054906101000a900473ffffffffffffffffffffffffffffffffffffffff1673ffffffffffffffffffffffffffffffffffffffff163373ffffffffffffffffffffffffffffffffffffffff1614905090565b60056020528060005260406000206000915054906101000a900460ff1681565b60026020528060005260406000206000915054906101000a900461ffff1681565b60006001610fc06108e2565b815481101515610fcc57fe5b9060005260206000200154905090565b60008161ffff1614151515611059576040517f08c379a000000000000000000000000000000000000000000000000000000000815260040180806020018281038252601f8152602001807f4163636f756e7420696e646578206d75737420626520706f736974697665210081525060200191505060405180910390fd5b606461ffff168161ffff16111515156110da576040517f08c379a00000000000000000000000000000000000000000000000000000000081526004018080602001828103825260198152602001807f4163636f756e7420696e6465782065786365656473206d61780000000000000081525060200191505060405180910390fd5b6000600260003373ffffffffffffffffffffffffffffffffffffffff1673ffffffffffffffffffffffffffffffffffffffff16815260200190815260200160002060009054906101000a900461ffff1661ffff161415156111a3576040517f08c379a000000000000000000000000000000000000000000000000000000000815260040180806020018281038252601d8152602001807f41646472657373206f63637570696573206163636f756e7420736c6f7400000081525060200191505060405180910390fd5b600073ffffffffffffffffffffffffffffffffffffffff16600360008361ffff1661ffff16815260200190815260200160002060009054906101000a900473ffffffffffffffffffffffffffffffffffffffff1673ffffffffffffffffffffffffffffffffffffffff16141515611282576040517f08c379a00000000000000000000000000000000000000000000000000000000081526004018080602001828103825260158152602001807f4163636f756e7420736c6f74206f63637570696564000000000000000000000081525060200191505060405180910390fd5b80600260003373ffffffffffffffffffffffffffffffffffffffff1673ffffffffffffffffffffffffffffffffffffffff16815260200190815260200160002060006101000a81548161ffff021916908361ffff16021790555033600360008361ffff1661ffff16815260200190815260200160002060006101000a81548173ffffffffffffffffffffffffffffffffffffffff021916908373ffffffffffffffffffffffffffffffffffffffff16021790555050565b60086020528060005260406000206000915090508060000160009054906101000a900461ffff16908060010154908060020154908060030154905084565b61137f610f1c565b151561138a57600080fd5b6000600560008373ffffffffffffffffffffffffffffffffffffffff1673ffffffffffffffffffffffffffffffffffffffff16815260200190815260200160002060009054906101000a900460ff1660ff16141515611451576040517f08c379a00000000000000000000000000000000000000000000000000000000081526004018080602001828103825260198152602001807f546f6b656e20616c72656164792072656769737465726564210000000000000081525060200191505060405180910390fd5b601e60ff166001600460009054906101000a900460ff160160ff16111515156114e2576040517f08c379a000000000000000000000000000000000000000000000000000000000815260040180806020018281038252601b8152602001807f546f6b656e2069642065786365656473206d617820746f6b656e73000000000081525060200191505060405180910390fd5b6001600460009054906101000a900460ff1601600560008373ffffffffffffffffffffffffffffffffffffffff1673ffffffffffffffffffffffffffffffffffffffff16815260200190815260200160002060006101000a81548160ff021916908360ff16021790555080600660006001600460009054906101000a900460ff160160ff1660ff16815260200190815260200160002060006101000a81548173ffffffffffffffffffffffffffffffffffffffff021916908373ffffffffffffffffffffffffffffffffffffffff1602179055506004600081819054906101000a900460ff168092919060010191906101000a81548160ff021916908360ff1602179055505050565b600060086000838152602001908152602001600020600101549050919050565b611613610f1c565b151561161e57600080fd5b61162781611db2565b50565b601e81565b60018181548110151561163e57fe5b906000526020600020016000915090505481565b6000600260003373ffffffffffffffffffffffffffffffffffffffff1673ffffffffffffffffffffffffffffffffffffffff16815260200190815260200160002060009054906101000a900461ffff1661ffff161415151561171c576040517f08c379a000000000000000000000000000000000000000000000000000000000815260040180806020018281038252601c8152602001807f4d75737420686176652072656769737465726564206163636f756e740000000081525060200191505060405180910390fd5b60008114151515611795576040517f08c379a000000000000000000000000000000000000000000000000000000000815260040180806020018281038252601c8152602001807f4d757374206465706f73697420706f73697469766520616d6f756e740000000081525060200191505060405180910390fd5b6000600660008460ff1660ff16815260200190815260200160002060009054906101000a900473ffffffffffffffffffffffffffffffffffffffff169050600073ffffffffffffffffffffffffffffffffffffffff168173ffffffffffffffffffffffffffffffffffffffff161415151561189e576040517f08c379a00000000000000000000000000000000000000000000000000000000081526004018080602001828103825260218152602001807f52657175657374656420746f6b656e206973206e6f742072656769737465726581526020017f640000000000000000000000000000000000000000000000000000000000000081525060400191505060405180910390fd5b8073ffffffffffffffffffffffffffffffffffffffff166323b872dd3330856040518463ffffffff167c0100000000000000000000000000000000000000000000000000000000028152600401808473ffffffffffffffffffffffffffffffffffffffff1673ffffffffffffffffffffffffffffffffffffffff1681526020018373ffffffffffffffffffffffffffffffffffffffff1673ffffffffffffffffffffffffffffffffffffffff1681526020018281526020019350505050602060405180830381600087803b15801561197557600080fd5b505af1158015611989573d6000803e3d6000fd5b505050506040513d602081101561199f57600080fd5b81019080805190602001909291905050501515611a24576040517f08c379a00000000000000000000000000000000000000000000000000000000081526004018080602001828103825260158152602001807f556e7375636365737366756c207472616e73666572000000000000000000000081525060200191505060405180910390fd5b606461ffff1660086000600754815260200190815260200160002060000160009054906101000a900461ffff1661ffff161480611a7b57506014600860006007548152602001908152602001600020600201540143115b15611b1857600760008154809291906001019190505550608060405190810160405280600061ffff16815260200160006001028152602001438152602001600081525060086000600754815260200190815260200160002060008201518160000160006101000a81548161ffff021916908361ffff1602179055506020820151816001015560408201518160020155606082015181600301559050505b6000600260003373ffffffffffffffffffffffffffffffffffffffff1673ffffffffffffffffffffffffffffffffffffffff16815260200190815260200160002060009054906101000a900461ffff1690506000600260086000600754815260200190815260200160002060010154838787604051602001808581526020018461ffff1661ffff167e010000000000000000000000000000000000000000000000000000000000000281526002018360ff1660ff167f01000000000000000000000000000000000000000000000000000000000000000281526001018281526020019450505050506040516020818303038152906040526040518082805190602001908083835b602083101515611c445780518252602082019150602081019050602083039250611c1f565b6001836020036101000a038019825116818451168082178552505050505050905001915050602060405180830381855afa158015611c86573d6000803e3d6000fd5b5050506040513d6020811015611c9b57600080fd5b810190808051906020019092919050505090508060086000600754815260200190815260200160002060010181905550600860006007548152602001908152602001600020600001600081819054906101000a900461ffff168092919060010191906101000a81548161ffff021916908361ffff160217905550507f11b6a98cbe45cc4a37168fc51fe422d2d03707513fa4b04b37d18c6896462dd282868660075460086000600754815260200190815260200160002060000160009054906101000a900461ffff16604051808661ffff1661ffff1681526020018560ff1660ff1681526020018481526020018381526020018261ffff1661ffff1681526020019550505050505060405180910390a15050505050565b600073ffffffffffffffffffffffffffffffffffffffff168173ffffffffffffffffffffffffffffffffffffffff1614151515611dee57600080fd5b8073ffffffffffffffffffffffffffffffffffffffff166000809054906101000a900473ffffffffffffffffffffffffffffffffffffffff1673ffffffffffffffffffffffffffffffffffffffff167f8be0079c531659141344cd1fd0a4f28419497f9722a3daafe3b4186f6b6457e060405160405180910390a3806000806101000a81548173ffffffffffffffffffffffffffffffffffffffff021916908373ffffffffffffffffffffffffffffffffffffffff1602179055505056fea165627a7a7230582059ab2371f1da449b9d70ddccebb0f2593210daea8474844c68d8c77ffc3a32070029",
  "source": "pragma solidity ^0.5.0;\n\nimport \"openzeppelin-solidity/contracts/token/ERC20/ERC20.sol\";\nimport \"openzeppelin-solidity/contracts/ownership/Ownable.sol\";\n\n\ncontract SnappBase is Ownable {\n\n    uint16 public constant MAX_ACCOUNT_ID = 100;     // TODO - make larger or use uint8\n    uint8 public constant MAX_TOKENS = 30;\n    uint16 public constant MAX_DEPOSIT_BATCH = 100;  // TODO - make larger or use uint8\n\n    bytes32[] public stateRoots;  // Pedersen Hash\n\n    enum TransitionType {\n        Deposit,\n        Withdrawal,\n        Auction\n    }\n\n    mapping (address => uint16) public publicKeyToAccountMap;\n    mapping (uint16 => address) public accountToPublicKeyMap;\n\n    uint8 public numTokens;\n    mapping (address => uint8) public tokenAddresToIdMap;\n    mapping (uint8 => address) public tokenIdToAddressMap;\n\n    struct DepositState {\n        uint16 size;                   // Number of deposits in this batch\n        bytes32 shaHash;               // Rolling shaHash of all deposits\n        uint creationBlock;            // Timestamp of batch creation\n        uint appliedAccountStateIndex; // accountState index when batch applied (for rollback)\n    }\n\n    uint public depositIndex;\n    mapping (uint => DepositState) public deposits;\n\n    event Deposit(uint16 accountId, uint8 tokenId, uint amount, uint slot, uint16 slotIndex);\n    event StateTransition(TransitionType transitionType, uint stateIndex, bytes32 stateHash, uint slot);\n    event SnappInitialization(bytes32 stateHash, uint8 maxTokens, uint16 maxAccounts);\n\n    modifier onlyRegistered() {\n        require(publicKeyToAccountMap[msg.sender] != 0, \"Must have registered account\");\n        _;\n    }\n\n    constructor () public {\n        // The initial state should be Pederson hash of an empty balance tree\n        bytes32 stateInit = bytes32(0);  // TODO\n        stateRoots.push(stateInit);\n        deposits[depositIndex] = DepositState({\n            size: 0,\n            shaHash: bytes32(0),\n            creationBlock: block.number,\n            appliedAccountStateIndex: 0\n        });\n\n        emit SnappInitialization(stateInit, MAX_TOKENS, MAX_ACCOUNT_ID);\n    }\n\n    function openAccount(uint16 accountId) public {\n        require(accountId != 0, \"Account index must be positive!\");\n        require(accountId <= MAX_ACCOUNT_ID, \"Account index exceeds max\");\n\n        // Ensure bijectivity of this maps (i.e. address can't occupy > 1 slots)\n        require(publicKeyToAccountMap[msg.sender] == 0, \"Address occupies account slot\");\n        require(accountToPublicKeyMap[accountId] == address(0), \"Account slot occupied\");\n\n        publicKeyToAccountMap[msg.sender] = accountId;\n        accountToPublicKeyMap[accountId] = msg.sender;\n    }\n\n    function addToken(address _tokenAddress) public onlyOwner() {\n        require(tokenAddresToIdMap[_tokenAddress] == 0, \"Token already registered!\");\n        require(numTokens + 1 <= MAX_TOKENS, \"Token id exceeds max tokens\");\n\n        tokenAddresToIdMap[_tokenAddress] = numTokens + 1;\n        tokenIdToAddressMap[numTokens + 1] = _tokenAddress;\n\n        numTokens++;\n    }\n\n    function deposit(uint8 tokenIndex, uint amount) public onlyRegistered() {\n        require(amount != 0, \"Must deposit positive amount\");\n\n        address tokenAddress = tokenIdToAddressMap[tokenIndex];\n        require(tokenAddress != address(0), \"Requested token is not registered\");\n        require(\n            ERC20(tokenAddress).transferFrom(msg.sender, address(this), amount), \n            \"Unsuccessful transfer\"\n        );\n\n        if (deposits[depositIndex].size == MAX_DEPOSIT_BATCH || block.number > deposits[depositIndex].creationBlock + 20) {\n            depositIndex++;\n            deposits[depositIndex] = DepositState({\n                size: 0,\n                shaHash: bytes32(0),\n                creationBlock: block.number,\n                appliedAccountStateIndex: 0   // Default 0 implies not applied.\n            });\n        }\n\n        // Update Deposit Hash based on request\n        uint16 accountId = publicKeyToAccountMap[msg.sender];\n        bytes32 nextDepositHash = sha256(\n            abi.encodePacked(deposits[depositIndex].shaHash, accountId, tokenIndex, amount)\n        );\n        deposits[depositIndex].shaHash = nextDepositHash;\n        deposits[depositIndex].size++;\n\n        emit Deposit(accountId, tokenIndex, amount, depositIndex, deposits[depositIndex].size);\n    }\n\n    function stateIndex() public view returns (uint) {\n        return stateRoots.length - 1;\n    }\n\n    function applyDeposits(\n        uint slot,\n        bytes32 _currStateRoot,\n        bytes32 _newStateRoot,\n        bytes32 _depositHash\n    )\n        public onlyOwner()\n    {   \n        require(slot <= depositIndex, \"Requested deposit slot does not exist\");\n        require(slot == 0 || deposits[slot-1].appliedAccountStateIndex != 0, \"Must apply deposit slots in order!\");\n        require(deposits[slot].shaHash == _depositHash, \"Deposits have been reorged\");\n        require(deposits[slot].appliedAccountStateIndex == 0, \"Deposits already processed\");\n        require(block.number > deposits[slot].creationBlock + 20, \"Requested deposit slot is still active\");\n        require(stateRoots[stateIndex()] == _currStateRoot, \"Incorrect State Root\");\n\n        // Note that the only slot that can ever be empty is the first (at index zero) \n        // This occurs when no deposits are made within the first 20 blocks of the contract's deployment\n        // This code allows for the processing of the empty block and since it will only happen once\n        // No, additional verificaiton is necessary.  \n\n        stateRoots.push(_newStateRoot);        \n        deposits[slot].appliedAccountStateIndex = stateIndex();\n\n        emit StateTransition(TransitionType.Deposit, stateIndex(), _newStateRoot, slot);\n    }\n\n    function hasDepositBeenApplied(uint index) public view returns (bool) {\n        return deposits[index].appliedAccountStateIndex != 0;\n    }\n\n    function isDepositSlotEmpty(uint index) public view returns (bool) {\n        return deposits[index].shaHash == bytes32(0);\n    }\n\n    function getCurrentStateRoot() public view returns (bytes32) {\n        return stateRoots[stateIndex()];\n    }\n\n    function getDepositCreationBlock(uint slot) public view returns (uint) {\n        return deposits[slot].creationBlock;\n    }\n\n    function getDepositHash(uint slot) public view returns (bytes32) {\n        return deposits[slot].shaHash;\n    }\n}\n",
  "sourcePath": "/home/josojo/gnosis/dex-contracts/contracts/SnappBase.sol",
  "compiler": {
    "name": "solc",
    "version": "0.5.0+commit.1d4f565a.Emscripten.clang"
  },
  "schemaVersion": "3.0.1",
  "updatedAt": "2019-01-28T20:36:22.942Z",
  "devdoc": {
    "methods": {
      "isOwner()": {
        "return": "true if `msg.sender` is the owner of the contract."
      },
      "owner()": {
        "return": "the address of the owner."
      },
      "renounceOwnership()": {
        "details": "Allows the current owner to relinquish control of the contract."
      },
      "transferOwnership(address)": {
        "details": "Allows the current owner to transfer control of the contract to a newOwner.",
        "params": {
          "newOwner": "The address to transfer ownership to."
        }
      }
    }
  },
  "userdoc": {
    "methods": {
      "renounceOwnership()": {
        "notice": "Renouncing to ownership will leave the contract without an owner. It will not be possible to call the functions with the `onlyOwner` modifier anymore."
      }
    }
  }
}