{
  "contractName": "SnappBase",
  "abi": [
    {
      "constant": true,
      "inputs": [
        {
          "name": "",
          "type": "uint8"
        }
      ],
      "name": "tokenIdToAddressMap",
      "outputs": [
        {
          "name": "",
          "type": "address"
        }
      ],
      "payable": false,
      "stateMutability": "view",
      "type": "function",
      "signature": "0x497024c2"
    },
    {
      "constant": true,
      "inputs": [],
      "name": "b",
      "outputs": [
        {
          "name": "",
          "type": "bytes"
        }
      ],
      "payable": false,
      "stateMutability": "view",
      "type": "function",
      "signature": "0x4df7e3d0"
    },
    {
      "constant": false,
      "inputs": [],
      "name": "renounceOwnership",
      "outputs": [],
      "payable": false,
      "stateMutability": "nonpayable",
      "type": "function",
      "signature": "0x715018a6"
    },
    {
      "constant": true,
      "inputs": [],
      "name": "MAX_DEPOSIT_BATCH",
      "outputs": [
        {
          "name": "",
          "type": "uint16"
        }
      ],
      "payable": false,
      "stateMutability": "view",
      "type": "function",
      "signature": "0x7b48090e"
    },
    {
      "constant": true,
      "inputs": [],
      "name": "depositIndex",
      "outputs": [
        {
          "name": "",
          "type": "uint256"
        }
      ],
      "payable": false,
      "stateMutability": "view",
      "type": "function",
      "signature": "0x7b898939"
    },
    {
      "constant": true,
      "inputs": [],
      "name": "MAX_ACCOUNT_ID",
      "outputs": [
        {
          "name": "",
          "type": "uint16"
        }
      ],
      "payable": false,
      "stateMutability": "view",
      "type": "function",
      "signature": "0x80d839b1"
    },
    {
      "constant": true,
      "inputs": [
        {
          "name": "",
          "type": "uint16"
        }
      ],
      "name": "accountToPublicKeyMap",
      "outputs": [
        {
          "name": "",
          "type": "address"
        }
      ],
      "payable": false,
      "stateMutability": "view",
      "type": "function",
      "signature": "0x89a72497"
    },
    {
      "constant": true,
      "inputs": [],
      "name": "owner",
      "outputs": [
        {
          "name": "",
          "type": "address"
        }
      ],
      "payable": false,
      "stateMutability": "view",
      "type": "function",
      "signature": "0x8da5cb5b"
    },
    {
      "constant": true,
      "inputs": [],
      "name": "numTokens",
      "outputs": [
        {
          "name": "",
          "type": "uint8"
        }
      ],
      "payable": false,
      "stateMutability": "view",
      "type": "function",
      "signature": "0x8e499bcf"
    },
    {
      "constant": true,
      "inputs": [],
      "name": "isOwner",
      "outputs": [
        {
          "name": "",
          "type": "bool"
        }
      ],
      "payable": false,
      "stateMutability": "view",
      "type": "function",
      "signature": "0x8f32d59b"
    },
    {
      "constant": true,
      "inputs": [
        {
          "name": "",
          "type": "address"
        }
      ],
      "name": "tokenAddresToIdMap",
      "outputs": [
        {
          "name": "",
          "type": "uint8"
        }
      ],
      "payable": false,
      "stateMutability": "view",
      "type": "function",
      "signature": "0x9067d7b4"
    },
    {
      "constant": true,
      "inputs": [
        {
          "name": "",
          "type": "address"
        }
      ],
      "name": "publicKeyToAccountMap",
      "outputs": [
        {
          "name": "",
          "type": "uint16"
        }
      ],
      "payable": false,
      "stateMutability": "view",
      "type": "function",
      "signature": "0x93066f93"
    },
    {
      "constant": true,
      "inputs": [
        {
          "name": "",
          "type": "uint256"
        }
      ],
      "name": "deposits",
      "outputs": [
        {
          "name": "size",
          "type": "uint16"
        },
        {
          "name": "shaHash",
          "type": "bytes32"
        },
        {
          "name": "creationBlock",
          "type": "uint256"
        },
        {
          "name": "appliedAccountStateIndex",
          "type": "uint256"
        }
      ],
      "payable": false,
      "stateMutability": "view",
      "type": "function",
      "signature": "0xb02c43d0"
    },
    {
      "constant": false,
      "inputs": [
        {
          "name": "newOwner",
          "type": "address"
        }
      ],
      "name": "transferOwnership",
      "outputs": [],
      "payable": false,
      "stateMutability": "nonpayable",
      "type": "function",
      "signature": "0xf2fde38b"
    },
    {
      "constant": true,
      "inputs": [],
      "name": "MAX_TOKENS",
      "outputs": [
        {
          "name": "",
          "type": "uint8"
        }
      ],
      "payable": false,
      "stateMutability": "view",
      "type": "function",
      "signature": "0xf47c84c5"
    },
    {
      "constant": true,
      "inputs": [
        {
          "name": "",
          "type": "uint256"
        }
      ],
      "name": "stateRoots",
      "outputs": [
        {
          "name": "",
          "type": "bytes32"
        }
      ],
      "payable": false,
      "stateMutability": "view",
      "type": "function",
      "signature": "0xf4cac30d"
    },
    {
      "inputs": [],
      "payable": false,
      "stateMutability": "nonpayable",
      "type": "constructor",
      "signature": "constructor"
    },
    {
      "anonymous": false,
      "inputs": [
        {
          "indexed": false,
          "name": "accountId",
          "type": "uint16"
        },
        {
          "indexed": false,
          "name": "tokenId",
          "type": "uint8"
        },
        {
          "indexed": false,
          "name": "amount",
          "type": "uint256"
        },
        {
          "indexed": false,
          "name": "slot",
          "type": "uint256"
        },
        {
          "indexed": false,
          "name": "slotIndex",
          "type": "uint16"
        }
      ],
      "name": "Deposit",
      "type": "event",
      "signature": "0x11b6a98cbe45cc4a37168fc51fe422d2d03707513fa4b04b37d18c6896462dd2"
    },
    {
      "anonymous": false,
      "inputs": [
        {
          "indexed": false,
          "name": "transitionType",
          "type": "uint8"
        },
        {
          "indexed": false,
          "name": "stateIndex",
          "type": "uint256"
        },
        {
          "indexed": false,
          "name": "stateHash",
          "type": "bytes32"
        },
        {
          "indexed": false,
          "name": "slot",
          "type": "uint256"
        }
      ],
      "name": "StateTransition",
      "type": "event",
      "signature": "0x3226fdc3b71ca91a95959d6392681cb982b51fc63db71eafc2ad3753edff7f84"
    },
    {
      "anonymous": false,
      "inputs": [
        {
          "indexed": false,
          "name": "stateHash",
          "type": "bytes32"
        },
        {
          "indexed": false,
          "name": "maxTokens",
          "type": "uint8"
        },
        {
          "indexed": false,
          "name": "maxAccounts",
          "type": "uint16"
        }
      ],
      "name": "SnappInitialization",
      "type": "event",
      "signature": "0xe1da8c47dc4fbd0eefa87251c4c509097a6a709606f6e53831712771e174afdb"
    },
    {
      "anonymous": false,
      "inputs": [
        {
          "indexed": true,
          "name": "previousOwner",
          "type": "address"
        },
        {
          "indexed": true,
          "name": "newOwner",
          "type": "address"
        }
      ],
      "name": "OwnershipTransferred",
      "type": "event",
      "signature": "0x8be0079c531659141344cd1fd0a4f28419497f9722a3daafe3b4186f6b6457e0"
    },
    {
      "constant": false,
      "inputs": [
        {
          "name": "accountId",
          "type": "uint16"
        }
      ],
      "name": "openAccount",
      "outputs": [],
      "payable": false,
      "stateMutability": "nonpayable",
      "type": "function",
      "signature": "0xa67e02ee"
    },
    {
      "constant": false,
      "inputs": [
        {
          "name": "_tokenAddress",
          "type": "address"
        }
      ],
      "name": "addToken",
      "outputs": [],
      "payable": false,
      "stateMutability": "nonpayable",
      "type": "function",
      "signature": "0xd48bfca7"
    },
    {
      "constant": false,
      "inputs": [
        {
          "name": "tokenIndex",
          "type": "uint8"
        },
        {
          "name": "amount",
          "type": "uint256"
        }
      ],
      "name": "deposit",
      "outputs": [],
      "payable": false,
      "stateMutability": "nonpayable",
      "type": "function",
      "signature": "0xf4d4c9d7"
    },
    {
      "constant": true,
      "inputs": [],
      "name": "stateIndex",
      "outputs": [
        {
          "name": "",
          "type": "uint256"
        }
      ],
      "payable": false,
      "stateMutability": "view",
      "type": "function",
      "signature": "0x6a2e4b2e"
    },
    {
      "constant": false,
      "inputs": [
        {
          "name": "slot",
          "type": "uint256"
        },
        {
          "name": "_currStateRoot",
          "type": "bytes32"
        },
        {
          "name": "_newStateRoot",
          "type": "bytes32"
        },
        {
          "name": "_depositHash",
          "type": "bytes32"
        }
      ],
      "name": "applyDeposits",
      "outputs": [],
      "payable": false,
      "stateMutability": "nonpayable",
      "type": "function",
      "signature": "0x8a9ffe22"
    },
    {
      "constant": true,
      "inputs": [
        {
          "name": "index",
          "type": "uint256"
        }
      ],
      "name": "hasDepositBeenApplied",
      "outputs": [
        {
          "name": "",
          "type": "bool"
        }
      ],
      "payable": false,
      "stateMutability": "view",
      "type": "function",
      "signature": "0x8b8e3c8b"
    },
    {
      "constant": true,
      "inputs": [
        {
          "name": "index",
          "type": "uint256"
        }
      ],
      "name": "isDepositSlotEmpty",
      "outputs": [
        {
          "name": "",
          "type": "bool"
        }
      ],
      "payable": false,
      "stateMutability": "view",
      "type": "function",
      "signature": "0x4383af5b"
    },
    {
      "constant": true,
      "inputs": [],
      "name": "getCurrentStateRoot",
      "outputs": [
        {
          "name": "",
          "type": "bytes32"
        }
      ],
      "payable": false,
      "stateMutability": "view",
      "type": "function",
      "signature": "0x974af738"
    },
    {
      "constant": true,
      "inputs": [
        {
          "name": "slot",
          "type": "uint256"
        }
      ],
      "name": "getDepositCreationBlock",
      "outputs": [
        {
          "name": "",
          "type": "uint256"
        }
      ],
      "payable": false,
      "stateMutability": "view",
      "type": "function",
      "signature": "0x6c8629c0"
    },
    {
      "constant": true,
      "inputs": [
        {
          "name": "slot",
          "type": "uint256"
        }
      ],
      "name": "getDepositHash",
      "outputs": [
        {
          "name": "",
          "type": "bytes32"
        }
      ],
      "payable": false,
      "stateMutability": "view",
      "type": "function",
      "signature": "0xe880696a"
    }
  ],
  "bytecode": "0x608060405234801561001057600080fd5b50336000806101000a81548173ffffffffffffffffffffffffffffffffffffffff021916908373ffffffffffffffffffffffffffffffffffffffff1602179055506000809054906101000a900473ffffffffffffffffffffffffffffffffffffffff1673ffffffffffffffffffffffffffffffffffffffff16600073ffffffffffffffffffffffffffffffffffffffff167f8be0079c531659141344cd1fd0a4f28419497f9722a3daafe3b4186f6b6457e060405160405180910390a360008060010290506001819080600181540180825580915050906001820390600052602060002001600090919290919091505550608060405190810160405280600061ffff16815260200160006001028152602001438152602001600081525060086000600754815260200190815260200160002060008201518160000160006101000a81548161ffff021916908361ffff1602179055506020820151816001015560408201518160020155606082015181600301559050507fe1da8c47dc4fbd0eefa87251c4c509097a6a709606f6e53831712771e174afdb81601e6064604051808481526020018360ff1660ff1681526020018261ffff1661ffff168152602001935050505060405180910390a15061216d806101ed6000396000f3fe608060405260043610610154576000357c0100000000000000000000000000000000000000000000000000000000900463ffffffff1680634383af5b14610159578063497024c2146101ac5780634df7e3d01461022a5780636a2e4b2e146102ba5780636c8629c0146102e5578063715018a6146103345780637b48090e1461034b5780637b8989391461037e57806380d839b1146103a957806389a72497146103dc5780638a9ffe221461045b5780638b8e3c8b146104b45780638da5cb5b146105075780638e499bcf1461055e5780638f32d59b1461058f5780639067d7b4146105be57806393066f9314610629578063974af73814610696578063a67e02ee146106c1578063b02c43d014610700578063d48bfca71461076c578063e880696a146107bd578063f2fde38b1461080c578063f47c84c51461085d578063f4cac30d1461088e578063f4d4c9d7146108dd575b600080fd5b34801561016557600080fd5b506101926004803603602081101561017c57600080fd5b8101908080359060200190929190505050610925565b604051808215151515815260200191505060405180910390f35b3480156101b857600080fd5b506101e8600480360360208110156101cf57600080fd5b81019080803560ff16906020019092919050505061094a565b604051808273ffffffffffffffffffffffffffffffffffffffff1673ffffffffffffffffffffffffffffffffffffffff16815260200191505060405180910390f35b34801561023657600080fd5b5061023f61097d565b6040518080602001828103825283818151815260200191508051906020019080838360005b8381101561027f578082015181840152602081019050610264565b50505050905090810190601f1680156102ac5780820380516001836020036101000a031916815260200191505b509250505060405180910390f35b3480156102c657600080fd5b506102cf610a1b565b6040518082815260200191505060405180910390f35b3480156102f157600080fd5b5061031e6004803603602081101561030857600080fd5b8101908080359060200190929190505050610a2a565b6040518082815260200191505060405180910390f35b34801561034057600080fd5b50610349610a4a565b005b34801561035757600080fd5b50610360610b1c565b604051808261ffff1661ffff16815260200191505060405180910390f35b34801561038a57600080fd5b50610393610b21565b6040518082815260200191505060405180910390f35b3480156103b557600080fd5b506103be610b27565b604051808261ffff1661ffff16815260200191505060405180910390f35b3480156103e857600080fd5b50610419600480360360208110156103ff57600080fd5b81019080803561ffff169060200190929190505050610b2c565b604051808273ffffffffffffffffffffffffffffffffffffffff1673ffffffffffffffffffffffffffffffffffffffff16815260200191505060405180910390f35b34801561046757600080fd5b506104b26004803603608081101561047e57600080fd5b8101908080359060200190929190803590602001909291908035906020019092919080359060200190929190505050610b5f565b005b3480156104c057600080fd5b506104ed600480360360208110156104d757600080fd5b8101908080359060200190929190505050610ff6565b604051808215151515815260200191505060405180910390f35b34801561051357600080fd5b5061051c611019565b604051808273ffffffffffffffffffffffffffffffffffffffff1673ffffffffffffffffffffffffffffffffffffffff16815260200191505060405180910390f35b34801561056a57600080fd5b50610573611042565b604051808260ff1660ff16815260200191505060405180910390f35b34801561059b57600080fd5b506105a4611055565b604051808215151515815260200191505060405180910390f35b3480156105ca57600080fd5b5061060d600480360360208110156105e157600080fd5b81019080803573ffffffffffffffffffffffffffffffffffffffff1690602001909291905050506110ac565b604051808260ff1660ff16815260200191505060405180910390f35b34801561063557600080fd5b506106786004803603602081101561064c57600080fd5b81019080803573ffffffffffffffffffffffffffffffffffffffff1690602001909291905050506110cc565b604051808261ffff1661ffff16815260200191505060405180910390f35b3480156106a257600080fd5b506106ab6110ed565b6040518082815260200191505060405180910390f35b3480156106cd57600080fd5b506106fe600480360360208110156106e457600080fd5b81019080803561ffff169060200190929190505050611115565b005b34801561070c57600080fd5b506107396004803603602081101561072357600080fd5b8101908080359060200190929190505050611472565b604051808561ffff1661ffff16815260200184815260200183815260200182815260200194505050505060405180910390f35b34801561077857600080fd5b506107bb6004803603602081101561078f57600080fd5b81019080803573ffffffffffffffffffffffffffffffffffffffff1690602001909291905050506114b0565b005b3480156107c957600080fd5b506107f6600480360360208110156107e057600080fd5b8101908080359060200190929190505050611724565b6040518082815260200191505060405180910390f35b34801561081857600080fd5b5061085b6004803603602081101561082f57600080fd5b81019080803573ffffffffffffffffffffffffffffffffffffffff169060200190929190505050611744565b005b34801561086957600080fd5b50610872611763565b604051808260ff1660ff16815260200191505060405180910390f35b34801561089a57600080fd5b506108c7600480360360208110156108b157600080fd5b8101908080359060200190929190505050611768565b6040518082815260200191505060405180910390f35b3480156108e957600080fd5b506109236004803603604081101561090057600080fd5b81019080803560ff1690602001909291908035906020019092919050505061178b565b005b6000806001026008600084815260200190815260200160002060010154149050919050565b60066020528060005260406000206000915054906101000a900473ffffffffffffffffffffffffffffffffffffffff1681565b60098054600181600116156101000203166002900480601f016020809104026020016040519081016040528092919081815260200182805460018160011615610100020316600290048015610a135780601f106109e857610100808354040283529160200191610a13565b820191906000526020600020905b8154815290600101906020018083116109f657829003601f168201915b505050505081565b60006001808054905003905090565b600060086000838152602001908152602001600020600201549050919050565b610a52611055565b1515610a5d57600080fd5b600073ffffffffffffffffffffffffffffffffffffffff166000809054906101000a900473ffffffffffffffffffffffffffffffffffffffff1673ffffffffffffffffffffffffffffffffffffffff167f8be0079c531659141344cd1fd0a4f28419497f9722a3daafe3b4186f6b6457e060405160405180910390a360008060006101000a81548173ffffffffffffffffffffffffffffffffffffffff021916908373ffffffffffffffffffffffffffffffffffffffff160217905550565b606481565b60075481565b606481565b60036020528060005260406000206000915054906101000a900473ffffffffffffffffffffffffffffffffffffffff1681565b610b67611055565b1515610b7257600080fd5b6007548411151515610c12576040517f08c379a00000000000000000000000000000000000000000000000000000000081526004018080602001828103825260258152602001807f526571756573746564206465706f73697420736c6f7420646f6573206e6f742081526020017f657869737400000000000000000000000000000000000000000000000000000081525060400191505060405180910390fd5b6000841480610c3b57506000600860006001870381526020019081526020016000206003015414155b1515610cd5576040517f08c379a00000000000000000000000000000000000000000000000000000000081526004018080602001828103825260228152602001807f4d757374206170706c79206465706f73697420736c6f747320696e206f72646581526020017f722100000000000000000000000000000000000000000000000000000000000081525060400191505060405180910390fd5b806008600086815260200190815260200160002060010154141515610d62576040517f08c379a000000000000000000000000000000000000000000000000000000000815260040180806020018281038252601a8152602001807f4465706f736974732068617665206265656e2072656f7267656400000000000081525060200191505060405180910390fd5b60006008600086815260200190815260200160002060030154141515610df0576040517f08c379a000000000000000000000000000000000000000000000000000000000815260040180806020018281038252601a8152602001807f4465706f7369747320616c72656164792070726f63657373656400000000000081525060200191505060405180910390fd5b601460086000868152602001908152602001600020600201540143111515610ea6576040517f08c379a00000000000000000000000000000000000000000000000000000000081526004018080602001828103825260268152602001807f526571756573746564206465706f73697420736c6f74206973207374696c6c2081526020017f616374697665000000000000000000000000000000000000000000000000000081525060400191505060405180910390fd5b826001610eb1610a1b565b815481101515610ebd57fe5b9060005260206000200154141515610f3d576040517f08c379a00000000000000000000000000000000000000000000000000000000081526004018080602001828103825260148152602001807f496e636f727265637420537461746520526f6f7400000000000000000000000081525060200191505060405180910390fd5b6001829080600181540180825580915050906001820390600052602060002001600090919290919091505550610f71610a1b565b60086000868152602001908152602001600020600301819055507f3226fdc3b71ca91a95959d6392681cb982b51fc63db71eafc2ad3753edff7f846000610fb6610a1b565b848760405180856002811115610fc857fe5b60ff16815260200184815260200183815260200182815260200194505050505060405180910390a150505050565b600080600860008481526020019081526020016000206003015414159050919050565b60008060009054906101000a900473ffffffffffffffffffffffffffffffffffffffff16905090565b600460009054906101000a900460ff1681565b60008060009054906101000a900473ffffffffffffffffffffffffffffffffffffffff1673ffffffffffffffffffffffffffffffffffffffff163373ffffffffffffffffffffffffffffffffffffffff1614905090565b60056020528060005260406000206000915054906101000a900460ff1681565b60026020528060005260406000206000915054906101000a900461ffff1681565b600060016110f9610a1b565b81548110151561110557fe5b9060005260206000200154905090565b60008161ffff1614151515611192576040517f08c379a000000000000000000000000000000000000000000000000000000000815260040180806020018281038252601f8152602001807f4163636f756e7420696e646578206d75737420626520706f736974697665210081525060200191505060405180910390fd5b606461ffff168161ffff1611151515611213576040517f08c379a00000000000000000000000000000000000000000000000000000000081526004018080602001828103825260198152602001807f4163636f756e7420696e6465782065786365656473206d61780000000000000081525060200191505060405180910390fd5b6000600260003373ffffffffffffffffffffffffffffffffffffffff1673ffffffffffffffffffffffffffffffffffffffff16815260200190815260200160002060009054906101000a900461ffff1661ffff161415156112dc576040517f08c379a000000000000000000000000000000000000000000000000000000000815260040180806020018281038252601d8152602001807f41646472657373206f63637570696573206163636f756e7420736c6f7400000081525060200191505060405180910390fd5b600073ffffffffffffffffffffffffffffffffffffffff16600360008361ffff1661ffff16815260200190815260200160002060009054906101000a900473ffffffffffffffffffffffffffffffffffffffff1673ffffffffffffffffffffffffffffffffffffffff161415156113bb576040517f08c379a00000000000000000000000000000000000000000000000000000000081526004018080602001828103825260158152602001807f4163636f756e7420736c6f74206f63637570696564000000000000000000000081525060200191505060405180910390fd5b80600260003373ffffffffffffffffffffffffffffffffffffffff1673ffffffffffffffffffffffffffffffffffffffff16815260200190815260200160002060006101000a81548161ffff021916908361ffff16021790555033600360008361ffff1661ffff16815260200190815260200160002060006101000a81548173ffffffffffffffffffffffffffffffffffffffff021916908373ffffffffffffffffffffffffffffffffffffffff16021790555050565b60086020528060005260406000206000915090508060000160009054906101000a900461ffff16908060010154908060020154908060030154905084565b6114b8611055565b15156114c357600080fd5b6000600560008373ffffffffffffffffffffffffffffffffffffffff1673ffffffffffffffffffffffffffffffffffffffff16815260200190815260200160002060009054906101000a900460ff1660ff1614151561158a576040517f08c379a00000000000000000000000000000000000000000000000000000000081526004018080602001828103825260198152602001807f546f6b656e20616c72656164792072656769737465726564210000000000000081525060200191505060405180910390fd5b601e60ff166001600460009054906101000a900460ff160160ff161115151561161b576040517f08c379a000000000000000000000000000000000000000000000000000000000815260040180806020018281038252601b8152602001807f546f6b656e2069642065786365656473206d617820746f6b656e73000000000081525060200191505060405180910390fd5b6001600460009054906101000a900460ff1601600560008373ffffffffffffffffffffffffffffffffffffffff1673ffffffffffffffffffffffffffffffffffffffff16815260200190815260200160002060006101000a81548160ff021916908360ff16021790555080600660006001600460009054906101000a900460ff160160ff1660ff16815260200190815260200160002060006101000a81548173ffffffffffffffffffffffffffffffffffffffff021916908373ffffffffffffffffffffffffffffffffffffffff1602179055506004600081819054906101000a900460ff168092919060010191906101000a81548160ff021916908360ff1602179055505050565b600060086000838152602001908152602001600020600101549050919050565b61174c611055565b151561175757600080fd5b61176081611fa2565b50565b601e81565b60018181548110151561177757fe5b906000526020600020016000915090505481565b6000600260003373ffffffffffffffffffffffffffffffffffffffff1673ffffffffffffffffffffffffffffffffffffffff16815260200190815260200160002060009054906101000a900461ffff1661ffff1614151515611855576040517f08c379a000000000000000000000000000000000000000000000000000000000815260040180806020018281038252601c8152602001807f4d75737420686176652072656769737465726564206163636f756e740000000081525060200191505060405180910390fd5b600081141515156118ce576040517f08c379a000000000000000000000000000000000000000000000000000000000815260040180806020018281038252601c8152602001807f4d757374206465706f73697420706f73697469766520616d6f756e740000000081525060200191505060405180910390fd5b6000600660008460ff1660ff16815260200190815260200160002060009054906101000a900473ffffffffffffffffffffffffffffffffffffffff169050600073ffffffffffffffffffffffffffffffffffffffff168173ffffffffffffffffffffffffffffffffffffffff16141515156119d7576040517f08c379a00000000000000000000000000000000000000000000000000000000081526004018080602001828103825260218152602001807f52657175657374656420746f6b656e206973206e6f742072656769737465726581526020017f640000000000000000000000000000000000000000000000000000000000000081525060400191505060405180910390fd5b8073ffffffffffffffffffffffffffffffffffffffff166323b872dd3330856040518463ffffffff167c0100000000000000000000000000000000000000000000000000000000028152600401808473ffffffffffffffffffffffffffffffffffffffff1673ffffffffffffffffffffffffffffffffffffffff1681526020018373ffffffffffffffffffffffffffffffffffffffff1673ffffffffffffffffffffffffffffffffffffffff1681526020018281526020019350505050602060405180830381600087803b158015611aae57600080fd5b505af1158015611ac2573d6000803e3d6000fd5b505050506040513d6020811015611ad857600080fd5b81019080805190602001909291905050501515611b5d576040517f08c379a00000000000000000000000000000000000000000000000000000000081526004018080602001828103825260158152602001807f556e7375636365737366756c207472616e73666572000000000000000000000081525060200191505060405180910390fd5b606461ffff1660086000600754815260200190815260200160002060000160009054906101000a900461ffff1661ffff161480611bb457506014600860006007548152602001908152602001600020600201540143115b15611c5157600760008154809291906001019190505550608060405190810160405280600061ffff16815260200160006001028152602001438152602001600081525060086000600754815260200190815260200160002060008201518160000160006101000a81548161ffff021916908361ffff1602179055506020820151816001015560408201518160020155606082015181600301559050505b6000600260003373ffffffffffffffffffffffffffffffffffffffff1673ffffffffffffffffffffffffffffffffffffffff16815260200190815260200160002060009054906101000a900461ffff16905060086000600754815260200190815260200160002060010154818585604051602001808581526020018461ffff1661ffff167e010000000000000000000000000000000000000000000000000000000000000281526002018360ff1660ff167f010000000000000000000000000000000000000000000000000000000000000002815260010182815260200194505050505060405160208183030381529060405260099080519060200190611d5992919061209c565b506000600260086000600754815260200190815260200160002060010154838787604051602001808581526020018461ffff1661ffff167e010000000000000000000000000000000000000000000000000000000000000281526002018360ff1660ff167f01000000000000000000000000000000000000000000000000000000000000000281526001018281526020019450505050506040516020818303038152906040526040518082805190602001908083835b602083101515611e345780518252602082019150602081019050602083039250611e0f565b6001836020036101000a038019825116818451168082178552505050505050905001915050602060405180830381855afa158015611e76573d6000803e3d6000fd5b5050506040513d6020811015611e8b57600080fd5b810190808051906020019092919050505090508060086000600754815260200190815260200160002060010181905550600860006007548152602001908152602001600020600001600081819054906101000a900461ffff168092919060010191906101000a81548161ffff021916908361ffff160217905550507f11b6a98cbe45cc4a37168fc51fe422d2d03707513fa4b04b37d18c6896462dd282868660075460086000600754815260200190815260200160002060000160009054906101000a900461ffff16604051808661ffff1661ffff1681526020018560ff1660ff1681526020018481526020018381526020018261ffff1661ffff1681526020019550505050505060405180910390a15050505050565b600073ffffffffffffffffffffffffffffffffffffffff168173ffffffffffffffffffffffffffffffffffffffff1614151515611fde57600080fd5b8073ffffffffffffffffffffffffffffffffffffffff166000809054906101000a900473ffffffffffffffffffffffffffffffffffffffff1673ffffffffffffffffffffffffffffffffffffffff167f8be0079c531659141344cd1fd0a4f28419497f9722a3daafe3b4186f6b6457e060405160405180910390a3806000806101000a81548173ffffffffffffffffffffffffffffffffffffffff021916908373ffffffffffffffffffffffffffffffffffffffff16021790555050565b828054600181600116156101000203166002900490600052602060002090601f016020900481019282601f106120dd57805160ff191683800117855561210b565b8280016001018555821561210b579182015b8281111561210a5782518255916020019190600101906120ef565b5b509050612118919061211c565b5090565b61213e91905b8082111561213a576000816000905550600101612122565b5090565b9056fea165627a7a72305820a6f30de3f839f67a84a6a407cca8399d89c0bdb77c4093e5f6c2bc13acd95b140029",
  "source": "pragma solidity ^0.5.0;\n\nimport \"openzeppelin-solidity/contracts/token/ERC20/ERC20.sol\";\nimport \"openzeppelin-solidity/contracts/ownership/Ownable.sol\";\n\n\ncontract SnappBase is Ownable {\n\n    uint16 public constant MAX_ACCOUNT_ID = 100;     // TODO - make larger or use uint8\n    uint8 public constant MAX_TOKENS = 30;\n    uint16 public constant MAX_DEPOSIT_BATCH = 100;  // TODO - make larger or use uint8\n\n    bytes32[] public stateRoots;  // Pedersen Hash\n\n    enum TransitionType {\n        Deposit,\n        Withdrawal,\n        Auction\n    }\n\n    mapping (address => uint16) public publicKeyToAccountMap;\n    mapping (uint16 => address) public accountToPublicKeyMap;\n\n    uint8 public numTokens;\n    mapping (address => uint8) public tokenAddresToIdMap;\n    mapping (uint8 => address) public tokenIdToAddressMap;\n\n    struct DepositState {\n        uint16 size;                   // Number of deposits in this batch\n        bytes32 shaHash;               // Rolling shaHash of all deposits\n        uint creationBlock;            // Timestamp of batch creation\n        uint appliedAccountStateIndex; // accountState index when batch applied (for rollback)\n    }\n\n    uint public depositIndex;\n    mapping (uint => DepositState) public deposits;\n\n    event Deposit(uint16 accountId, uint8 tokenId, uint amount, uint slot, uint16 slotIndex);\n    event StateTransition(TransitionType transitionType, uint stateIndex, bytes32 stateHash, uint slot);\n    event SnappInitialization(bytes32 stateHash, uint8 maxTokens, uint16 maxAccounts);\n\n    modifier onlyRegistered() {\n        require(publicKeyToAccountMap[msg.sender] != 0, \"Must have registered account\");\n        _;\n    }\n\n    constructor () public {\n        // The initial state should be Pederson hash of an empty balance tree\n        bytes32 stateInit = bytes32(0);  // TODO\n        stateRoots.push(stateInit);\n        deposits[depositIndex] = DepositState({\n            size: 0,\n            shaHash: bytes32(0),\n            creationBlock: block.number,\n            appliedAccountStateIndex: 0\n        });\n\n        emit SnappInitialization(stateInit, MAX_TOKENS, MAX_ACCOUNT_ID);\n    }\n\n    function openAccount(uint16 accountId) public {\n        require(accountId != 0, \"Account index must be positive!\");\n        require(accountId <= MAX_ACCOUNT_ID, \"Account index exceeds max\");\n\n        // Ensure bijectivity of this maps (i.e. address can't occupy > 1 slots)\n        require(publicKeyToAccountMap[msg.sender] == 0, \"Address occupies account slot\");\n        require(accountToPublicKeyMap[accountId] == address(0), \"Account slot occupied\");\n\n        publicKeyToAccountMap[msg.sender] = accountId;\n        accountToPublicKeyMap[accountId] = msg.sender;\n    }\n\n    function addToken(address _tokenAddress) public onlyOwner() {\n        require(tokenAddresToIdMap[_tokenAddress] == 0, \"Token already registered!\");\n        require(numTokens + 1 <= MAX_TOKENS, \"Token id exceeds max tokens\");\n\n        tokenAddresToIdMap[_tokenAddress] = numTokens + 1;\n        tokenIdToAddressMap[numTokens + 1] = _tokenAddress;\n\n        numTokens++;\n    }\n    bytes public b;\n    function deposit(uint8 tokenIndex, uint amount) public onlyRegistered() {\n        require(amount != 0, \"Must deposit positive amount\");\n\n        address tokenAddress = tokenIdToAddressMap[tokenIndex];\n        require(tokenAddress != address(0), \"Requested token is not registered\");\n        require(\n            ERC20(tokenAddress).transferFrom(msg.sender, address(this), amount), \n            \"Unsuccessful transfer\"\n        );\n\n        if (deposits[depositIndex].size == MAX_DEPOSIT_BATCH || block.number > deposits[depositIndex].creationBlock + 20) {\n            depositIndex++;\n            deposits[depositIndex] = DepositState({\n                size: 0,\n                shaHash: bytes32(0),\n                creationBlock: block.number,\n                appliedAccountStateIndex: 0   // Default 0 implies not applied.\n            });\n        }\n\n        // Update Deposit Hash based on request\n        uint16 accountId = publicKeyToAccountMap[msg.sender];\n        b =  abi.encodePacked(deposits[depositIndex].shaHash, accountId, tokenIndex, amount);\n        bytes32 nextDepositHash = sha256(\n            abi.encodePacked(deposits[depositIndex].shaHash, accountId, tokenIndex, amount)\n        );\n        deposits[depositIndex].shaHash = nextDepositHash;\n        deposits[depositIndex].size++;\n\n        emit Deposit(accountId, tokenIndex, amount, depositIndex, deposits[depositIndex].size);\n    }\n\n    function stateIndex() public view returns (uint) {\n        return stateRoots.length - 1;\n    }\n\n    function applyDeposits(\n        uint slot,\n        bytes32 _currStateRoot,\n        bytes32 _newStateRoot,\n        bytes32 _depositHash\n    )\n        public onlyOwner()\n    {   \n        require(slot <= depositIndex, \"Requested deposit slot does not exist\");\n        require(slot == 0 || deposits[slot-1].appliedAccountStateIndex != 0, \"Must apply deposit slots in order!\");\n        require(deposits[slot].shaHash == _depositHash, \"Deposits have been reorged\");\n        require(deposits[slot].appliedAccountStateIndex == 0, \"Deposits already processed\");\n        require(block.number > deposits[slot].creationBlock + 20, \"Requested deposit slot is still active\");\n        require(stateRoots[stateIndex()] == _currStateRoot, \"Incorrect State Root\");\n\n        // Note that the only slot that can ever be empty is the first (at index zero) \n        // This occurs when no deposits are made within the first 20 blocks of the contract's deployment\n        // This code allows for the processing of the empty block and since it will only happen once\n        // No, additional verificaiton is necessary.  \n\n        stateRoots.push(_newStateRoot);        \n        deposits[slot].appliedAccountStateIndex = stateIndex();\n\n        emit StateTransition(TransitionType.Deposit, stateIndex(), _newStateRoot, slot);\n    }\n\n    function hasDepositBeenApplied(uint index) public view returns (bool) {\n        return deposits[index].appliedAccountStateIndex != 0;\n    }\n\n    function isDepositSlotEmpty(uint index) public view returns (bool) {\n        return deposits[index].shaHash == bytes32(0);\n    }\n\n    function getCurrentStateRoot() public view returns (bytes32) {\n        return stateRoots[stateIndex()];\n    }\n\n    function getDepositCreationBlock(uint slot) public view returns (uint) {\n        return deposits[slot].creationBlock;\n    }\n\n    function getDepositHash(uint slot) public view returns (bytes32) {\n        return deposits[slot].shaHash;\n    }\n}\n",
  "sourcePath": "/home/josojo/gnosis/dex-contracts/contracts/SnappBase.sol",
  "compiler": {
    "name": "solc",
    "version": "0.5.0+commit.1d4f565a.Emscripten.clang"
  },
  "schemaVersion": "3.0.1",
  "updatedAt": "2019-01-30T15:00:41.814Z",
  "devdoc": {
    "methods": {
      "isOwner()": {
        "return": "true if `msg.sender` is the owner of the contract."
      },
      "owner()": {
        "return": "the address of the owner."
      },
      "renounceOwnership()": {
        "details": "Allows the current owner to relinquish control of the contract."
      },
      "transferOwnership(address)": {
        "details": "Allows the current owner to transfer control of the contract to a newOwner.",
        "params": {
          "newOwner": "The address to transfer ownership to."
        }
      }
    }
  },
  "userdoc": {
    "methods": {
      "renounceOwnership()": {
        "notice": "Renouncing to ownership will leave the contract without an owner. It will not be possible to call the functions with the `onlyOwner` modifier anymore."
      }
    }
  }
}