{
  "contractName": "BatchExchangeViewer",
  "abi": [
    {
      "constant": true,
      "inputs": [],
      "name": "INDEXED_AUCTION_ELEMENT_WIDTH",
      "outputs": [
        {
          "name": "",
          "type": "uint8"
        }
      ],
      "payable": false,
      "stateMutability": "view",
      "type": "function"
    },
    {
      "constant": true,
      "inputs": [],
      "name": "ADDRESS_WIDTH",
      "outputs": [
        {
          "name": "",
          "type": "uint8"
        }
      ],
      "payable": false,
      "stateMutability": "view",
      "type": "function"
    },
    {
      "constant": true,
      "inputs": [],
      "name": "LARGE_PAGE_SIZE",
      "outputs": [
        {
          "name": "",
          "type": "uint16"
        }
      ],
      "payable": false,
      "stateMutability": "view",
      "type": "function"
    },
    {
      "constant": true,
      "inputs": [],
      "name": "AUCTION_ELEMENT_WIDTH",
      "outputs": [
        {
          "name": "",
          "type": "uint8"
        }
      ],
      "payable": false,
      "stateMutability": "view",
      "type": "function"
    },
    {
      "constant": true,
      "inputs": [
        {
          "name": "",
          "type": "uint256"
        }
      ],
      "name": "ALL_TOKEN_FILTER",
      "outputs": [
        {
          "name": "",
          "type": "uint16"
        }
      ],
      "payable": false,
      "stateMutability": "view",
      "type": "function"
    },
    {
      "inputs": [
        {
          "name": "exchange",
          "type": "address"
        }
      ],
      "payable": false,
      "stateMutability": "nonpayable",
      "type": "constructor"
    },
    {
      "constant": true,
      "inputs": [
        {
          "name": "tokenFilter",
          "type": "address[]"
        }
      ],
      "name": "getOpenOrderBook",
      "outputs": [
        {
          "name": "",
          "type": "bytes"
        }
      ],
      "payable": false,
      "stateMutability": "view",
      "type": "function"
    },
    {
      "constant": true,
      "inputs": [
        {
          "name": "tokenFilter",
          "type": "address[]"
        },
        {
          "name": "previousPageUser",
          "type": "address"
        },
        {
          "name": "previousPageUserOffset",
          "type": "uint16"
        },
        {
          "name": "maxPageSize",
          "type": "uint16"
        }
      ],
      "name": "getOpenOrderBookPaginated",
      "outputs": [
        {
          "name": "elements",
          "type": "bytes"
        },
        {
          "name": "hasNextPage",
          "type": "bool"
        },
        {
          "name": "nextPageUser",
          "type": "address"
        },
        {
          "name": "nextPageUserOffset",
          "type": "uint16"
        }
      ],
      "payable": false,
      "stateMutability": "view",
      "type": "function"
    },
    {
      "constant": true,
      "inputs": [
        {
          "name": "tokenFilter",
          "type": "address[]"
        }
      ],
      "name": "getFinalizedOrderBook",
      "outputs": [
        {
          "name": "",
          "type": "bytes"
        }
      ],
      "payable": false,
      "stateMutability": "view",
      "type": "function"
    },
    {
      "constant": true,
      "inputs": [
        {
          "name": "tokenFilter",
          "type": "address[]"
        },
        {
          "name": "previousPageUser",
          "type": "address"
        },
        {
          "name": "previousPageUserOffset",
          "type": "uint16"
        },
        {
          "name": "maxPageSize",
          "type": "uint16"
        }
      ],
      "name": "getFinalizedOrderBookPaginated",
      "outputs": [
        {
          "name": "elements",
          "type": "bytes"
        },
        {
          "name": "hasNextPage",
          "type": "bool"
        },
        {
          "name": "nextPageUser",
          "type": "address"
        },
        {
          "name": "nextPageUserOffset",
          "type": "uint16"
        }
      ],
      "payable": false,
      "stateMutability": "view",
      "type": "function"
    },
    {
      "constant": true,
      "inputs": [
        {
          "name": "batchIds",
          "type": "uint32[3]"
        },
        {
          "name": "tokenFilter",
          "type": "uint16[]"
        },
        {
          "name": "previousPageUser",
          "type": "address"
        },
        {
          "name": "previousPageUserOffset",
          "type": "uint16"
        },
        {
          "name": "maxPageSize",
          "type": "uint16"
        }
      ],
      "name": "getFilteredOrdersPaginated",
      "outputs": [
        {
          "name": "elements",
          "type": "bytes"
        },
        {
          "name": "hasNextPage",
          "type": "bool"
        },
        {
          "name": "nextPageUser",
          "type": "address"
        },
        {
          "name": "nextPageUserOffset",
          "type": "uint16"
        }
      ],
      "payable": false,
      "stateMutability": "view",
      "type": "function"
    },
    {
      "constant": true,
      "inputs": [
        {
          "name": "previousPageUser",
          "type": "address"
        },
        {
          "name": "previousPageUserOffset",
          "type": "uint16"
        },
        {
          "name": "pageSize",
          "type": "uint256"
        }
      ],
      "name": "getEncodedOrdersPaginated",
      "outputs": [
        {
          "name": "",
          "type": "bytes"
        }
      ],
      "payable": false,
      "stateMutability": "view",
      "type": "function"
    },
    {
      "constant": true,
      "inputs": [
        {
          "name": "tokenFilter",
          "type": "uint16[]"
        },
        {
          "name": "previousPageUser",
          "type": "address"
        },
        {
          "name": "previousPageUserOffset",
          "type": "uint16"
        },
        {
          "name": "pageSize",
          "type": "uint256"
        }
      ],
      "name": "getEncodedOrdersPaginatedWithTokenFilter",
      "outputs": [
        {
          "name": "",
          "type": "bytes"
        }
      ],
      "payable": false,
      "stateMutability": "view",
      "type": "function"
    },
    {
      "constant": true,
      "inputs": [
        {
          "name": "tokenFilter",
          "type": "uint16[]"
        },
        {
          "name": "previousPageUser",
          "type": "address"
        },
        {
          "name": "previousPageUserOffset",
          "type": "uint16"
        },
        {
          "name": "elements",
          "type": "bytes"
        }
      ],
      "name": "writeEncodedOrdersPaginatedWithTokenFilter",
      "outputs": [
        {
          "name": "",
          "type": "uint256"
        }
      ],
      "payable": false,
      "stateMutability": "view",
      "type": "function"
    },
    {
      "constant": true,
      "inputs": [
        {
          "name": "buyToken",
          "type": "uint16"
        },
        {
          "name": "sellToken",
          "type": "uint16"
        },
        {
          "name": "filter",
          "type": "uint16[]"
        }
      ],
      "name": "matchesTokenFilter",
      "outputs": [
        {
          "name": "",
          "type": "bool"
        }
      ],
      "payable": false,
      "stateMutability": "pure",
      "type": "function"
    },
    {
      "constant": true,
      "inputs": [
        {
          "name": "element",
          "type": "bytes"
        }
      ],
      "name": "getUser",
      "outputs": [
        {
          "name": "",
          "type": "address"
        }
      ],
      "payable": false,
      "stateMutability": "pure",
      "type": "function"
    },
    {
      "constant": true,
      "inputs": [
        {
          "name": "element",
          "type": "bytes"
        }
      ],
      "name": "getSellTokenBalance",
      "outputs": [
        {
          "name": "",
          "type": "uint256"
        }
      ],
      "payable": false,
      "stateMutability": "pure",
      "type": "function"
    },
    {
      "constant": true,
      "inputs": [
        {
          "name": "element",
          "type": "bytes"
        },
        {
          "name": "amount",
          "type": "uint256"
        }
      ],
      "name": "updateSellTokenBalance",
      "outputs": [
        {
          "name": "",
          "type": "bytes"
        }
      ],
      "payable": false,
      "stateMutability": "pure",
      "type": "function"
    },
    {
      "constant": true,
      "inputs": [
        {
          "name": "element",
          "type": "bytes"
        }
      ],
      "name": "getBuyToken",
      "outputs": [
        {
          "name": "",
          "type": "uint16"
        }
      ],
      "payable": false,
      "stateMutability": "pure",
      "type": "function"
    },
    {
      "constant": true,
      "inputs": [
        {
          "name": "element",
          "type": "bytes"
        }
      ],
      "name": "getSellToken",
      "outputs": [
        {
          "name": "",
          "type": "uint16"
        }
      ],
      "payable": false,
      "stateMutability": "pure",
      "type": "function"
    },
    {
      "constant": true,
      "inputs": [
        {
          "name": "element",
          "type": "bytes"
        }
      ],
      "name": "getValidFrom",
      "outputs": [
        {
          "name": "",
          "type": "uint32"
        }
      ],
      "payable": false,
      "stateMutability": "pure",
      "type": "function"
    },
    {
      "constant": true,
      "inputs": [
        {
          "name": "element",
          "type": "bytes"
        }
      ],
      "name": "getValidUntil",
      "outputs": [
        {
          "name": "",
          "type": "uint32"
        }
      ],
      "payable": false,
      "stateMutability": "pure",
      "type": "function"
    },
    {
      "constant": true,
      "inputs": [
        {
          "name": "tokenIds",
          "type": "address[]"
        }
      ],
      "name": "getTokenIdsFromAdresses",
      "outputs": [
        {
          "name": "",
          "type": "uint16[]"
        }
      ],
      "payable": false,
      "stateMutability": "view",
      "type": "function"
    },
    {
      "constant": true,
      "inputs": [
        {
          "name": "element",
          "type": "bytes"
        },
        {
          "name": "targetBatchIndex",
          "type": "uint32"
        }
      ],
      "name": "updateSellTokenBalanceForBatchId",
      "outputs": [
        {
          "name": "",
          "type": "bytes"
        }
      ],
      "payable": false,
      "stateMutability": "view",
      "type": "function"
    },
    {
      "constant": true,
      "inputs": [
        {
          "name": "tokenId",
          "type": "uint16"
        }
      ],
      "name": "getTokenInfo",
      "outputs": [
        {
          "name": "",
          "type": "address"
        },
        {
          "name": "symbol",
          "type": "string"
        },
        {
          "name": "decimals",
          "type": "uint8"
        }
      ],
      "payable": false,
      "stateMutability": "view",
      "type": "function"
    },
    {
      "constant": true,
      "inputs": [
        {
          "name": "token",
          "type": "address"
        }
      ],
      "name": "getTokenSymbolString",
      "outputs": [
        {
          "name": "",
          "type": "string"
        }
      ],
      "payable": false,
      "stateMutability": "view",
      "type": "function"
    },
    {
      "constant": true,
      "inputs": [
        {
          "name": "token",
          "type": "address"
        }
      ],
      "name": "getTokenSymbolBytes",
      "outputs": [
        {
          "name": "",
          "type": "string"
        }
      ],
      "payable": false,
      "stateMutability": "view",
      "type": "function"
    },
    {
      "constant": true,
      "inputs": [
        {
          "name": "buffer",
          "type": "bytes"
        },
        {
          "name": "length",
          "type": "uint256"
        }
      ],
      "name": "setLength",
      "outputs": [],
      "payable": false,
      "stateMutability": "pure",
      "type": "function"
    },
    {
      "constant": true,
      "inputs": [
        {
          "name": "source",
          "type": "bytes"
        },
        {
          "name": "destination",
          "type": "bytes"
        },
        {
          "name": "offset",
          "type": "uint256"
        }
      ],
      "name": "copyInPlace",
      "outputs": [],
      "payable": false,
      "stateMutability": "pure",
      "type": "function"
    }
  ],
  "bytecode": "0x608060405234801561001057600080fd5b50604051612cdf380380612cdf8339818101604052602081101561003357600080fd5b5051600180546001600160a01b0319166001600160a01b03909216919091179055612c7c806100636000396000f3fe608060405234801561001057600080fd5b50600436106101c45760003560e01c8063970957bb116100f9578063d08f722811610097578063e9469eb111610071578063e9469eb114611105578063e9d98f0914611122578063f469c116146111de578063fa55171614611282576101c4565b8063d08f7228146110ed578063d615388a146110f5578063d9d80082146110fd576101c4565b8063a94a3df9116100d3578063a94a3df914610f31578063b0c1926514610fed578063b54810fd14611023578063b900dc02146110c7576101c4565b8063970957bb14610d9a5780639e47107514610e5a578063a8ef264214610f13576101c4565b80636d7e99d1116101665780637c40a1b3116101405780637c40a1b314610a8d5780637c66b49314610b2e5780639101074c14610bda578063951b13f114610c00576101c4565b80636d7e99d1146108015780636df5a662146108a557806376137caa14610962576101c4565b8063348ae418116101a2578063348ae4181461049757806334e59fa6146105ad5780633b4c5f1b1461069e57806352b8dfc514610759576101c4565b80630ce0f677146101c95780631c58e7931461029257806329258dee14610346575b600080fd5b61027e600480360360608110156101df57600080fd5b61ffff8235811692602081013590911691810190606081016040820135600160201b81111561020d57600080fd5b82018360208201111561021f57600080fd5b803590602001918460208302840111600160201b8311171561024057600080fd5b919080806020026020016040519081016040528093929190818152602001838360200280828437600092019190915250929550611328945050505050565b604080519115158252519081900360200190f35b6102b3600480360360208110156102a857600080fd5b503561ffff166113b9565b604080516001600160a01b038516815260ff831691810191909152606060208083018281528551928401929092528451608084019186019080838360005b838110156103095781810151838201526020016102f1565b50505050905090810190601f1680156103365780820380516001836020036101000a031916815260200191505b5094505050505060405180910390f35b6104856004803603608081101561035c57600080fd5b810190602081018135600160201b81111561037657600080fd5b82018360208201111561038857600080fd5b803590602001918460208302840111600160201b831117156103a957600080fd5b91908080602002602001604051908101604052809392919081815260200183836020028082843760009201919091525092956001600160a01b038535169561ffff60208701351695919450925060608101915060400135600160201b81111561041157600080fd5b82018360208201111561042357600080fd5b803590602001918460018302840111600160201b8311171561044457600080fd5b91908080601f0160208091040260200160405190810160405280939291908181526020018383808284376000920191909152509295506116a5945050505050565b60408051918252519081900360200190f35b610538600480360360208110156104ad57600080fd5b810190602081018135600160201b8111156104c757600080fd5b8201836020820111156104d957600080fd5b803590602001918460208302840111600160201b831117156104fa57600080fd5b919080806020026020016040519081016040528093929190818152602001838360200280828437600092019190915250929550611924945050505050565b6040805160208082528351818301528351919283929083019185019080838360005b8381101561057257818101518382015260200161055a565b50505050905090810190601f16801561059f5780820380516001836020036101000a031916815260200191505b509250505060405180910390f35b61064e600480360360208110156105c357600080fd5b810190602081018135600160201b8111156105dd57600080fd5b8201836020820111156105ef57600080fd5b803590602001918460208302840111600160201b8311171561061057600080fd5b919080806020026020016040519081016040528093929190818152602001838360200280828437600092019190915250929550611984945050505050565b60408051602080825283518183015283519192839290830191858101910280838360005b8381101561068a578181015183820152602001610672565b505050509050019250505060405180910390f35b610742600480360360208110156106b457600080fd5b810190602081018135600160201b8111156106ce57600080fd5b8201836020820111156106e057600080fd5b803590602001918460018302840111600160201b8311171561070157600080fd5b91908080601f016020809104026020016040519081016040528093929190818152602001838380828437600092019190915250929550611a8e945050505050565b6040805161ffff9092168252519081900360200190f35b6107ff6004803603604081101561076f57600080fd5b810190602081018135600160201b81111561078957600080fd5b82018360208201111561079b57600080fd5b803590602001918460018302840111600160201b831117156107bc57600080fd5b91908080601f0160208091040260200160405190810160405280939291908181526020018383808284376000920191909152509295505091359250611ab8915050565b005b6104856004803603602081101561081757600080fd5b810190602081018135600160201b81111561083157600080fd5b82018360208201111561084357600080fd5b803590602001918460018302840111600160201b8311171561086457600080fd5b91908080601f016020809104026020016040519081016040528093929190818152602001838380828437600092019190915250929550611abc945050505050565b610949600480360360208110156108bb57600080fd5b810190602081018135600160201b8111156108d557600080fd5b8201836020820111156108e757600080fd5b803590602001918460018302840111600160201b8311171561090857600080fd5b91908080601f016020809104026020016040519081016040528093929190818152602001838380828437600092019190915250929550611ae6945050505050565b6040805163ffffffff9092168252519081900360200190f35b6107ff6004803603606081101561097857600080fd5b810190602081018135600160201b81111561099257600080fd5b8201836020820111156109a457600080fd5b803590602001918460018302840111600160201b831117156109c557600080fd5b91908080601f0160208091040260200160405190810160405280939291908181526020018383808284376000920191909152509295949360208101935035915050600160201b811115610a1757600080fd5b820183602082011115610a2957600080fd5b803590602001918460018302840111600160201b83111715610a4a57600080fd5b91908080601f0160208091040260200160405190810160405280939291908181526020018383808284376000920191909152509295505091359250611b10915050565b61053860048036036020811015610aa357600080fd5b810190602081018135600160201b811115610abd57600080fd5b820183602082011115610acf57600080fd5b803590602001918460208302840111600160201b83111715610af057600080fd5b919080806020026020016040519081016040528093929190818152602001838360200280828437600092019190915250929550611b66945050505050565b61053860048036036040811015610b4457600080fd5b810190602081018135600160201b811115610b5e57600080fd5b820183602082011115610b7057600080fd5b803590602001918460018302840111600160201b83111715610b9157600080fd5b91908080601f0160208091040260200160405190810160405280939291908181526020018383808284376000920191909152509295505050903563ffffffff169150611b789050565b61053860048036036020811015610bf057600080fd5b50356001600160a01b0316611ead565b610cef600480360360e0811015610c1657600080fd5b810190808060600190600380602002604051908101604052809291908260036020028082843760009201919091525091949392602081019250359050600160201b811115610c6357600080fd5b820183602082011115610c7557600080fd5b803590602001918460208302840111600160201b83111715610c9657600080fd5b919080806020026020016040519081016040528093929190818152602001838360200280828437600092019190915250929550506001600160a01b0383351693505061ffff602083013581169260400135169050612010565b604051808060200185151515158152602001846001600160a01b03166001600160a01b031681526020018361ffff1661ffff168152602001828103825286818151815260200191508051906020019080838360005b83811015610d5c578181015183820152602001610d44565b50505050905090810190601f168015610d895780820380516001836020036101000a031916815260200191505b509550505050505060405180910390f35b610e3e60048036036020811015610db057600080fd5b810190602081018135600160201b811115610dca57600080fd5b820183602082011115610ddc57600080fd5b803590602001918460018302840111600160201b83111715610dfd57600080fd5b91908080601f01602080910402602001604051908101604052809392919081815260200183838082843760009201919091525092955061222f945050505050565b604080516001600160a01b039092168252519081900360200190f35b61053860048036036080811015610e7057600080fd5b810190602081018135600160201b811115610e8a57600080fd5b820183602082011115610e9c57600080fd5b803590602001918460208302840111600160201b83111715610ebd57600080fd5b919080806020026020016040519081016040528093929190818152602001838360200280828437600092019190915250929550505081356001600160a01b0316925050602081013561ffff169060400135612258565b610f1b6122b6565b6040805160ff9092168252519081900360200190f35b610cef60048036036080811015610f4757600080fd5b810190602081018135600160201b811115610f6157600080fd5b820183602082011115610f7357600080fd5b803590602001918460208302840111600160201b83111715610f9457600080fd5b919080806020026020016040519081016040528093929190818152602001838360200280828437600092019190915250929550506001600160a01b0383351693505061ffff6020830135811692604001351690506122bb565b6105386004803603606081101561100357600080fd5b506001600160a01b038135169061ffff602082013516906040013561238f565b6107426004803603602081101561103957600080fd5b810190602081018135600160201b81111561105357600080fd5b82018360208201111561106557600080fd5b803590602001918460018302840111600160201b8311171561108657600080fd5b91908080601f01602080910402602001604051908101604052809392919081815260200183838082843760009201919091525092955061241d945050505050565b610538600480360360208110156110dd57600080fd5b50356001600160a01b0316612434565b610f1b6124fb565b610742612500565b610f1b612506565b6107426004803603602081101561111b57600080fd5b503561250b565b610cef6004803603608081101561113857600080fd5b810190602081018135600160201b81111561115257600080fd5b82018360208201111561116457600080fd5b803590602001918460208302840111600160201b8311171561118557600080fd5b919080806020026020016040519081016040528093929190818152602001838360200280828437600092019190915250929550506001600160a01b0383351693505061ffff602083013581169260400135169050612540565b610949600480360360208110156111f457600080fd5b810190602081018135600160201b81111561120e57600080fd5b82018360208201111561122057600080fd5b803590602001918460018302840111600160201b8311171561124157600080fd5b91908080601f0160208091040260200160405190810160405280939291908181526020018383808284376000920191909152509295506125f8945050505050565b6105386004803603604081101561129857600080fd5b810190602081018135600160201b8111156112b257600080fd5b8201836020820111156112c457600080fd5b803590602001918460018302840111600160201b831117156112e557600080fd5b91908080601f016020809104026020016040519081016040528093929190818152602001838380828437600092019190915250929550509135925061260f915050565b600081516000141561133c575060016113b2565b600080805b84518110156113a2578661ffff1685828151811061135b57fe5b602002602001015161ffff16141561137257600192505b8561ffff1685828151811061138357fe5b602002602001015161ffff16141561139a57600191505b600101611341565b508180156113ad5750805b925050505b9392505050565b60015460408051631788684160e11b815261ffff841660048201529051600092606092849283926001600160a01b031691632f10d082916024808301926020929190829003018186803b15801561140f57600080fd5b505afa158015611423573d6000803e3d6000fd5b505050506040513d602081101561143957600080fd5b50516040805160208181018352600080835283516001600160a01b038616602480830191909152855180830390910181526044909101855291820180516001600160e01b0316635c806e0160e11b178152935182519398509495509330939192909182918083835b602083106114c05780518252601f1990920191602091820191016114a1565b6001836020036101000a038019825116818451168082178552505050505050905001915050600060405180830381855afa9150503d8060008114611520576040519150601f19603f3d011682016040523d82523d6000602084013e611525565b606091505b50509050801561153f5761153882612434565b935061162f565b604080516001600160a01b03841660248083019190915282518083039091018152604490910182526020810180516001600160e01b031663244041d360e21b17815291518151600093309392918291908083835b602083106115b25780518252601f199092019160209182019101611593565b6001836020036101000a038019825116818451168082178552505050505050905001915050600060405180830381855afa9150503d8060008114611612576040519150601f19603f3d011682016040523d82523d6000602084013e611617565b606091505b50509050801561162d5761162a83611ead565b94505b505b8184836001600160a01b031663313ce5676040518163ffffffff1660e01b815260040160206040518083038186803b15801561166a57600080fd5b505afa15801561167e573d6000803e3d6000fd5b505050506040513d602081101561169457600080fd5b505191989097509095509350505050565b600080607060ff168351816116b657fe5b600154604080516343383ac360e01b81526001600160a01b038a811660048301529490930461ffff811660248501529051909450606093909116916343383ac3916044808301926000929190829003018186803b15801561171657600080fd5b505afa15801561172a573d6000803e3d6000fd5b505050506040513d6000823e601f3d908101601f19168201604052602081101561175357600080fd5b810190808051600160201b81111561176a57600080fd5b8201602081018481111561177d57600080fd5b8151600160201b81118282018710171561179657600080fd5b50909450889350899250600091508190505b8582101561191657600154604080516001600160a01b03868116602483015261ffff881660448084019190915283518084039091018152606490920183526020820180516001600160e01b031663793b8c6d60e01b17815292518251600095606095931693611388939092918291908083835b6020831061183a5780518252601f19909201916020918201910161181b565b6001836020036101000a0380198251168184511680821785525050505050509050019150506000604051808303818686fa925050503d806000811461189b576040519150601f19603f3d011682016040523d82523d6000602084013e6118a0565b606091505b509150915081156118cd57600195909501946118c28d86838d60708902612664565b60018401935061190f565b86516000965060148481020111611908576118fb6118f68860148681029063ffffffff61295916565b61222f565b945060018301925061190f565b5050611916565b50506117a8565b509998505050505050505050565b606080611936836000806113886122bb565b50508151919250506208b2901161197e5760405162461bcd60e51b8152600401808060200182810382526031815260200180612c176031913960400191505060405180910390fd5b92915050565b60608082516040519080825280602002602001820160405280156119b2578160200160208202803883390190505b50905060005b8351811015611a875760015484516001600160a01b039091169063ef574d23908690849081106119e457fe5b60200260200101516040518263ffffffff1660e01b815260040180826001600160a01b03166001600160a01b0316815260200191505060206040518083038186803b158015611a3257600080fd5b505afa158015611a46573d6000803e3d6000fd5b505050506040513d6020811015611a5c57600080fd5b50518251839083908110611a6c57fe5b61ffff909216602092830291909101909101526001016119b8565b5092915050565b60006060611aa5836036600263ffffffff61295916565b90506113b281600063ffffffff6129d916565b9052565b60006060611ad3836014603463ffffffff61295916565b90506113b281600063ffffffff6129f516565b60006060611afd83603c600463ffffffff61295916565b90506113b281600063ffffffff612a1116565b60005b8351811015611b6057838181518110611b2857fe5b602001015160f81c60f81b8382840181518110611b4157fe5b60200101906001600160f81b031916908160001a905350600101611b13565b50505050565b60608061193683600080611388612540565b60606000611b858461222f565b90506000611b9285611a8e565b60015460408051631788684160e11b815261ffff8416600482015290519293506000926001600160a01b0390921691632f10d08291602480820192602092909190829003018186803b158015611be757600080fd5b505afa158015611bfb573d6000803e3d6000fd5b505050506040513d6020811015611c1157600080fd5b505190506000611c2087611abc565b6001546040805163b3c0afa160e01b81526001600160a01b038881166004830152868116602483015282519495506000948594919091169263b3c0afa19260448082019391829003018186803b158015611c7957600080fd5b505afa158015611c8d573d6000803e3d6000fd5b505050506040513d6040811015611ca357600080fd5b50805160209182015160015460408051637390564760e11b815290519396509194506001600160a01b03169263e720ac8e92600480840193829003018186803b158015611cef57600080fd5b505afa158015611d03573d6000803e3d6000fd5b505050506040513d6020811015611d1957600080fd5b505163ffffffff90811690821610801590611d3f57508763ffffffff168163ffffffff16105b15611d5757611d54838363ffffffff612a2d16565b92505b6001546040805163619f5cfb60e11b81526001600160a01b03898116600483015287811660248301528251600094859492169263c33eb9f6926044808301939192829003018186803b158015611dac57600080fd5b505afa158015611dc0573d6000803e3d6000fd5b505050506040513d6040811015611dd657600080fd5b50805160209182015160015460408051637390564760e11b815290519396509194506001600160a01b03169263e720ac8e92600480840193829003018186803b158015611e2257600080fd5b505afa158015611e36573d6000803e3d6000fd5b505050506040513d6020811015611e4c57600080fd5b505163ffffffff90811690821610801590611e7257508963ffffffff168163ffffffff16105b15611e9457611e91611e848684612a87565b869063ffffffff612a9d16565b94505b611e9e8b8661260f565b9b9a5050505050505050505050565b60408051600481526024810182526020810180516001600160e01b03166395d89b4160e01b1781529151815160609360009385936001600160a01b03881693919290918291908083835b60208310611f165780518252601f199092019160209182019101611ef7565b6001836020036101000a038019825116818451168082178552505050505050905001915050600060405180830381855afa9150503d8060008114611f76576040519150601f19603f3d011682016040523d82523d6000602084013e611f7b565b606091505b509150915081611fc6576040805162461bcd60e51b815260206004820152601160248201527010d85b9b9bdd0819d95d081cde5b589bdb607a1b604482015290519081900360640190fd5b60005b815181101561200857818181518110611fde57fe5b01602001516001600160f81b03191661200057611ffb8282611ab8565b612008565b600101611fc9565b509392505050565b60606000806000607060020160ff168561ffff16026040519080825280601f01601f19166020018201604052801561204f576020820181803883390190505b50935061205d846000611ab8565b6040805161ffff8716607002808252601f19601f82011682016020019092526060918015612092576020820181803883390190505b5090508792508691506001935060005a90505b8480156120b75750806003025a600502115b15612220575a905060006120cd8b8686866116a5565b61ffff891681149650905060005b818161ffff1610156122195760606120fc85607061ffff8516810290612959565b905061210f818f60026020020151611b78565b9050600061211c8261222f565b9050876001600160a01b0316816001600160a01b031614156121435760018701965061214b565b600196508097505b612154826125f8565b8f5163ffffffff918216911610801590612189575061217282611ae6565b63ffffffff168f6001602002015163ffffffff1611155b156121f057895161219e908b90607201611ab8565b89516121b19083908c9060711901611b10565b604080516001600160f01b03196000198a0160f01b1660208201528151808203600201815260229091019091528a516121f091908c9060011901611b10565b895161ffff60728d02161161220f575060019750612223945050505050565b50506001016120db565b50506120a5565b50505b95509550955095915050565b600060606122458383601463ffffffff61295916565b90506113b281600063ffffffff612adf16565b606080607060ff1683026040519080825280601f01601f19166020018201604052801561228c576020820181803883390190505b509050600061229d878787856116a5565b90506122ac8260708302611ab8565b5095945050505050565b607281565b6060600080600080600160009054906101000a90046001600160a01b03166001600160a01b031663e720ac8e6040518163ffffffff1660e01b815260040160206040518083038186803b15801561231157600080fd5b505afa158015612325573d6000803e3d6000fd5b505050506040513d602081101561233b57600080fd5b50516040805160608101825263ffffffff60001984018116808352602083015283169181019190915290915061237c906123748b611984565b8a8a8a612010565b929c919b50995090975095505050505050565b6060612415600080548060200260200160405190810160405280929190818152602001828054801561240857602002820191906000526020600020906000905b82829054906101000a900461ffff1661ffff16815260200190600201906020826001010492830192600103820291508084116123cf5790505b5050505050858585612258565b949350505050565b60006060611aa5836034600263ffffffff61295916565b6060816001600160a01b03166395d89b416040518163ffffffff1660e01b815260040160006040518083038186803b15801561246f57600080fd5b505afa158015612483573d6000803e3d6000fd5b505050506040513d6000823e601f3d908101601f1916820160405260208110156124ac57600080fd5b810190808051600160201b8111156124c357600080fd5b820160208101848111156124d657600080fd5b8151600160201b8111828201871017156124ef57600080fd5b50909695505050505050565b601481565b61138881565b607081565b6000818154811061251857fe5b9060005260206000209060109182820401919006600202915054906101000a900461ffff1681565b6060600080600080600160009054906101000a90046001600160a01b03166001600160a01b031663e720ac8e6040518163ffffffff1660e01b815260040160206040518083038186803b15801561259657600080fd5b505afa1580156125aa573d6000803e3d6000fd5b505050506040513d60208110156125c057600080fd5b50516040805160608101825263ffffffff808416808352602083015260018401169181019190915290915061237c906123748b611984565b60006060611afd836038600463ffffffff61295916565b60606113b2612627846034603c63ffffffff61295916565b604080516020808201879052825180830390910181529082019091526126589081876000601463ffffffff61295916565b9063ffffffff612b0216565b60008060008060008060008980602001905160e081101561268457600080fd5b8101908080519060200190929190805190602001909291908051906020019092919080519060200190929190805190602001909291908051906020019092919080519060200190929190505050965096509650965096509650965061271e8b60405160200180826001600160a01b03166001600160a01b031660601b81526014019150506040516020818303038152906040528a8a611b10565b61272987878e611328565b1561290b57600081830390506000600160009054906101000a90046001600160a01b03166001600160a01b031663d4fac45d8e600160009054906101000a90046001600160a01b03166001600160a01b0316632f10d0828c6040518263ffffffff1660e01b8152600401808261ffff1661ffff16815260200191505060206040518083038186803b1580156127bd57600080fd5b505afa1580156127d1573d6000803e3d6000fd5b505050506040513d60208110156127e757600080fd5b5051604080516001600160e01b031960e086901b1681526001600160a01b039384166004820152929091166024830152516044808301926020929190829003018186803b15801561283757600080fd5b505afa15801561284b573d6000803e3d6000fd5b505050506040513d602081101561286157600080fd5b505160408051602081018390526001600160f01b031960f08d811b8216838501528c901b1660428201526001600160e01b031960e08b811b821660448401528a901b1660488201526fffffffffffffffffffffffffffffffff19608089811b8216604c84015288811b8216605c808501919091529087901b909116606c83015282518083039091018152607c909101909152909150612904908c60148d01611b10565b505061294b565b60145b607081101561294957600060f81b8a8a83018151811061292a57fe5b60200101906001600160f81b031916908160001a90535060010161290e565b505b505050505050505050505050565b60608183018451101561296b57600080fd5b606082158015612986576040519150602082016040526129d0565b6040519150601f8416801560200281840101858101878315602002848b0101015b818310156129bf5780518352602092830192016129a7565b5050858452601f01601f1916604052505b50949350505050565b600081600201835110156129ec57600080fd5b50016002015190565b60008160200183511015612a0857600080fd5b50016020015190565b60008160040183511015612a2457600080fd5b50016004015190565b6000828201838110156113b2576040805162461bcd60e51b815260206004820152601b60248201527f536166654d6174683a206164646974696f6e206f766572666c6f770000000000604482015290519081900360640190fd5b6000818310612a9657816113b2565b5090919050565b60006113b283836040518060400160405280601e81526020017f536166654d6174683a207375627472616374696f6e206f766572666c6f770000815250612b7f565b60008160140183511015612af257600080fd5b500160200151600160601b900490565b6060806040519050835180825260208201818101602087015b81831015612b33578051835260209283019201612b1b565b50855184518101855292509050808201602086015b81831015612b60578051835260209283019201612b48565b508651929092011591909101601f01601f191660405250905092915050565b60008184841115612c0e5760405162461bcd60e51b81526004018080602001828103825283818151815260200191508051906020019080838360005b83811015612bd3578181015183820152602001612bbb565b50505050905090810190601f168015612c005780820380516001836020036101000a031916815260200191505b509250505060405180910390fd5b50505090039056fe4f72646572626f6f6b20746f6f206c617267652c2075736520706167696e6174656420766965772066756e6374696f6e73a265627a7a723058205afc3e4fa5d61c467c1160416b4d3a6e9be54f8d72618efd342d13d36add1d7f64736f6c634300050a0032",
  "source": "pragma solidity ^0.5.10;\n\nimport \"@openzeppelin/contracts/math/SafeMath.sol\";\nimport \"@openzeppelin/contracts/token/ERC20/ERC20Detailed.sol\";\nimport \"solidity-bytes-utils/contracts/BytesLib.sol\";\nimport \"./BatchExchange.sol\";\n\ncontract BatchExchangeViewer {\n    using BytesLib for bytes;\n    using SafeMath for uint256;\n\n    uint8 public constant AUCTION_ELEMENT_WIDTH = 112;\n    // Contains the orderId on top of the normal auction element data\n    uint8 public constant INDEXED_AUCTION_ELEMENT_WIDTH = AUCTION_ELEMENT_WIDTH + 2;\n    uint8 public constant ADDRESS_WIDTH = 20;\n    uint16 public constant LARGE_PAGE_SIZE = 5000;\n    // Can be used by external contracts to indicate no filter as it doesn't seem possible\n    // to create an empty memory array in solidity.\n    uint16[] public ALL_TOKEN_FILTER;\n\n    BatchExchange batchExchange;\n\n    constructor(BatchExchange exchange) public {\n        batchExchange = exchange;\n    }\n\n    /** @dev Queries the orderbook for the auction that is still accepting orders\n     *  @param tokenFilter all returned order will have buy *and* sell token from this list (leave empty for \"no filter\")\n     *  @return encoded bytes representing orders, maxed at 5000 elements\n     */\n    function getOpenOrderBook(address[] memory tokenFilter) public view returns (bytes memory) {\n        (bytes memory elements, , , ) = getOpenOrderBookPaginated(tokenFilter, address(0), 0, LARGE_PAGE_SIZE);\n        require(\n            elements.length < uint256(LARGE_PAGE_SIZE) * INDEXED_AUCTION_ELEMENT_WIDTH,\n            \"Orderbook too large, use paginated view functions\"\n        );\n        return elements;\n    }\n\n    /** @dev Queries a page of the orderbook for the auction that is still accepting orders\n     *  @param tokenFilter all returned order will have buy *and* sell token from this list (leave empty for \"no filter\")\n     *  @param previousPageUser address taken from nextPageUser return value from last page (address(0) for first page)\n     *  @param previousPageUserOffset offset taken nextPageUserOffset return value from last page (0 for first page)\n     *  @param maxPageSize count of elements to be returned per page (same value is used for subqueries on the exchange)\n     *  @return encoded bytes representing orders and page information for next page\n     */\n    function getOpenOrderBookPaginated(\n        address[] memory tokenFilter,\n        address previousPageUser,\n        uint16 previousPageUserOffset,\n        uint16 maxPageSize\n    )\n        public\n        view\n        returns (\n            bytes memory elements,\n            bool hasNextPage,\n            address nextPageUser,\n            uint16 nextPageUserOffset\n        )\n    {\n        uint32 batch = batchExchange.getCurrentBatchId();\n        return\n            getFilteredOrdersPaginated(\n                [batch, batch, batch + 1],\n                getTokenIdsFromAdresses(tokenFilter),\n                previousPageUser,\n                previousPageUserOffset,\n                maxPageSize\n            );\n    }\n\n    /** @dev Queries the orderbook for the auction that is currently being solved\n     *  @param tokenFilter all returned order will have buy *and* sell token from this list (leave empty for \"no filter\")\n     *  @return encoded bytes representing orders, maxed at 5000 elements\n     */\n    function getFinalizedOrderBook(address[] memory tokenFilter) public view returns (bytes memory) {\n        (bytes memory elements, , , ) = getFinalizedOrderBookPaginated(tokenFilter, address(0), 0, LARGE_PAGE_SIZE);\n        require(\n            elements.length < uint256(LARGE_PAGE_SIZE) * INDEXED_AUCTION_ELEMENT_WIDTH,\n            \"Orderbook too large, use paginated view functions\"\n        );\n        return elements;\n    }\n\n    /** @dev Queries a page of the orderbook for the auction that is currently being solved\n     *  @param tokenFilter all returned order will have buy *and* sell token from this list (leave empty for \"no filter\")\n     *  @param previousPageUser address taken from nextPageUser return value from last page (address(0) for first page)\n     *  @param previousPageUserOffset offset taken nextPageUserOffset return value from last page (0 for first page)\n     *  @param maxPageSize count of elements to be returned per page (same value is used for subqueries on the exchange)\n     *  @return encoded bytes representing orders and page information for next page\n     */\n    function getFinalizedOrderBookPaginated(\n        address[] memory tokenFilter,\n        address previousPageUser,\n        uint16 previousPageUserOffset,\n        uint16 maxPageSize\n    )\n        public\n        view\n        returns (\n            bytes memory elements,\n            bool hasNextPage,\n            address nextPageUser,\n            uint16 nextPageUserOffset\n        )\n    {\n        uint32 batch = batchExchange.getCurrentBatchId();\n        return\n            getFilteredOrdersPaginated(\n                [batch - 1, batch - 1, batch],\n                getTokenIdsFromAdresses(tokenFilter),\n                previousPageUser,\n                previousPageUserOffset,\n                maxPageSize\n            );\n    }\n\n    /** @dev Queries a page in the list of all orders\n     *  @param batchIds Triple with the following values [maxValidFrom, minValidUntil, sellBalanceTargetBatchIndex]\n     *  Batched together as we are running out of local variables (Solidity does not compile with Stack too deep error)\n     *      - maxValidFrom: all returned orders will have a validFrom <= this value (they were placed at or before that batch)\n     *      - minValidUntil all returned orders will have a validUntil >= this value (validity ends at or after that batch)\n     *      - sellBalanceTargetBatchIndex the batchIndex at which we are expecting the sellTokenBalance to be valid\n        (e.g. in the current live orderbook we want to include sellBalances that are valid in currentBatch + 1).\n     *  @param tokenFilter all returned order will have buy *and* sell token from this list (leave empty for \"no filter\")\n     *  @param previousPageUser address taken from nextPageUser return value from last page (address(0) for first page)\n     *  @param previousPageUserOffset offset taken nextPageUserOffset return value from last page (0 for first page)\n     *  @param maxPageSize maximum count of elements to be returned per page (same value is used for subqueries on the exchange)\n     *  @return encoded bytes representing orders and page information for next page. Result can contain less elements than\n     *  maxPageSize if remaining gas is low.\n     */\n    function getFilteredOrdersPaginated(\n        uint32[3] memory batchIds, // batched to save local variables\n        uint16[] memory tokenFilter,\n        address previousPageUser,\n        uint16 previousPageUserOffset,\n        uint16 maxPageSize\n    )\n        public\n        view\n        returns (\n            bytes memory elements,\n            bool hasNextPage,\n            address nextPageUser,\n            uint16 nextPageUserOffset\n        )\n    {\n        elements = new bytes(uint256(maxPageSize) * INDEXED_AUCTION_ELEMENT_WIDTH);\n        setLength(elements, 0);\n        bytes memory unfiltered = new bytes(uint256(maxPageSize) * AUCTION_ELEMENT_WIDTH);\n        nextPageUser = previousPageUser;\n        nextPageUserOffset = previousPageUserOffset;\n        hasNextPage = true;\n        uint256 gasLeftBeforePage = gasleft();\n        // Continue while more pages exist or we still have 3/5 (60%) of remaining gas from previous page\n        while (hasNextPage && 5 * gasleft() > 3 * gasLeftBeforePage) {\n            gasLeftBeforePage = gasleft();\n            uint256 unfilteredCount = writeEncodedOrdersPaginatedWithTokenFilter(\n                tokenFilter,\n                nextPageUser,\n                nextPageUserOffset,\n                unfiltered\n            );\n            hasNextPage = unfilteredCount == maxPageSize;\n            for (uint16 index = 0; index < unfilteredCount; index++) {\n                // make sure we don't overflow index * AUCTION_ELEMENT_WIDTH\n                bytes memory element = unfiltered.slice(uint256(index) * AUCTION_ELEMENT_WIDTH, AUCTION_ELEMENT_WIDTH);\n                element = updateSellTokenBalanceForBatchId(element, batchIds[2]);\n                // Update pagination info\n                address user = getUser(element);\n                if (user == nextPageUser) {\n                    nextPageUserOffset += 1;\n                } else {\n                    nextPageUserOffset = 1;\n                    nextPageUser = user;\n                }\n                if (batchIds[0] >= getValidFrom(element) && batchIds[1] <= getValidUntil(element)) {\n                    setLength(elements, elements.length + INDEXED_AUCTION_ELEMENT_WIDTH);\n                    copyInPlace(element, elements, elements.length - INDEXED_AUCTION_ELEMENT_WIDTH);\n                    // Append index so order information can be used to construct solutions\n                    copyInPlace(\n                        abi.encodePacked(nextPageUserOffset - 1),\n                        elements,\n                        elements.length - INDEXED_AUCTION_ELEMENT_WIDTH + AUCTION_ELEMENT_WIDTH\n                    );\n                }\n                if (elements.length >= maxPageSize * INDEXED_AUCTION_ELEMENT_WIDTH) {\n                    // We are at capacity, return\n                    // Note, that we might indicate a nextPage although we exactly made it to the end.\n                    // However, since the inner call to fetch unfiltered orders might also indicate a next\n                    // page even though it is right at the end, this cannot really be avoided.\n                    return (elements, true, nextPageUser, nextPageUserOffset);\n                }\n            }\n        }\n        return (elements, hasNextPage, nextPageUser, nextPageUserOffset);\n    }\n\n    /** @dev View returning byte-encoded sell orders in paginated form. It has the same behavior as\n     * BatchExchange.getEncodedUsersPaginated but uses less memory and thus is more gas efficient.\n     * @param previousPageUser address of last user received in the previous page (address(0) for first page)\n     * @param previousPageUserOffset the number of orders received for the last user on the previous page (0 for first page).\n     * @param pageSize uint determining the count of orders to be returned per page\n     * @return encoded bytes representing a page of orders ordered by (user, index)\n     */\n    function getEncodedOrdersPaginated(\n        address previousPageUser,\n        uint16 previousPageUserOffset,\n        uint256 pageSize\n    ) public view returns (bytes memory) {\n        return getEncodedOrdersPaginatedWithTokenFilter(ALL_TOKEN_FILTER, previousPageUser, previousPageUserOffset, pageSize);\n    }\n\n    function getEncodedOrdersPaginatedWithTokenFilter(\n        uint16[] memory tokenFilter,\n        address previousPageUser,\n        uint16 previousPageUserOffset,\n        uint256 pageSize\n    ) public view returns (bytes memory) {\n        bytes memory elements = new bytes(pageSize * AUCTION_ELEMENT_WIDTH);\n        uint256 orderCount = writeEncodedOrdersPaginatedWithTokenFilter(\n            tokenFilter,\n            previousPageUser,\n            previousPageUserOffset,\n            elements\n        );\n        setLength(elements, orderCount * AUCTION_ELEMENT_WIDTH);\n        return elements;\n    }\n\n    function writeEncodedOrdersPaginatedWithTokenFilter(\n        uint16[] memory tokenFilter,\n        address previousPageUser,\n        uint16 previousPageUserOffset,\n        bytes memory elements\n    ) public view returns (uint256) {\n        uint256 pageSize = elements.length / AUCTION_ELEMENT_WIDTH;\n        bytes memory users = batchExchange.getUsersPaginated(previousPageUser, uint16(pageSize));\n        uint16 currentOffset = previousPageUserOffset;\n        address currentUser = previousPageUser;\n        uint256 orderIndex = 0;\n        uint256 userIndex = 0;\n        while (orderIndex < pageSize) {\n            // There is no way of getting the number of orders a user has, thus \"try\" fetching the next order and\n            // check if the static call succeeded. Otherwise move on to the next user. Limit the amount of gas as\n            // in the failure case IVALID_OPCODE consumes all remaining gas.\n            (bool success, bytes memory order) = address(batchExchange).staticcall.gas(5000)(\n                abi.encodeWithSignature(\"orders(address,uint256)\", currentUser, currentOffset)\n            );\n            if (success) {\n                currentOffset += 1;\n                encodeAuctionElement(tokenFilter, currentUser, order, elements, orderIndex * AUCTION_ELEMENT_WIDTH);\n                orderIndex += 1;\n            } else {\n                currentOffset = 0;\n                if (users.length >= (userIndex * ADDRESS_WIDTH) + ADDRESS_WIDTH) {\n                    currentUser = getUser(users.slice(userIndex * ADDRESS_WIDTH, ADDRESS_WIDTH));\n                    userIndex += 1;\n                } else {\n                    break;\n                }\n            }\n        }\n        return orderIndex;\n    }\n\n    function matchesTokenFilter(\n        uint16 buyToken,\n        uint16 sellToken,\n        uint16[] memory filter\n    ) public pure returns (bool) {\n        // An empty filter is interpreted as \"select all\"\n        if (filter.length == 0) {\n            return true;\n        }\n        (bool foundBuyToken, bool foundSellToken) = (false, false);\n        for (uint256 index = 0; index < filter.length; index++) {\n            if (filter[index] == buyToken) {\n                foundBuyToken = true;\n            }\n            if (filter[index] == sellToken) {\n                foundSellToken = true;\n            }\n        }\n        return foundBuyToken && foundSellToken;\n    }\n\n    function getUser(bytes memory element) public pure returns (address) {\n        bytes memory slice = element.slice(0, ADDRESS_WIDTH);\n        return slice.toAddress(0);\n    }\n\n    function getSellTokenBalance(bytes memory element) public pure returns (uint256) {\n        bytes memory slice = element.slice(ADDRESS_WIDTH, 52);\n        return slice.toUint(0);\n    }\n\n    function updateSellTokenBalance(bytes memory element, uint256 amount) public pure returns (bytes memory) {\n        return\n            element.slice(0, ADDRESS_WIDTH).concat(abi.encodePacked(amount)).concat(\n                element.slice(52, AUCTION_ELEMENT_WIDTH - 52)\n            );\n    }\n\n    function getBuyToken(bytes memory element) public pure returns (uint16) {\n        bytes memory slice = element.slice(52, 2);\n        return slice.toUint16(0);\n    }\n\n    function getSellToken(bytes memory element) public pure returns (uint16) {\n        bytes memory slice = element.slice(54, 2);\n        return slice.toUint16(0);\n    }\n\n    function getValidFrom(bytes memory element) public pure returns (uint32) {\n        bytes memory slice = element.slice(56, 4);\n        return slice.toUint32(0);\n    }\n\n    function getValidUntil(bytes memory element) public pure returns (uint32) {\n        bytes memory slice = element.slice(60, 4);\n        return slice.toUint32(0);\n    }\n\n    function getTokenIdsFromAdresses(address[] memory tokenIds) public view returns (uint16[] memory) {\n        uint16[] memory result = new uint16[](tokenIds.length);\n        for (uint256 index = 0; index < tokenIds.length; index++) {\n            result[index] = batchExchange.tokenAddressToIdMap(tokenIds[index]);\n        }\n        return result;\n    }\n\n    function updateSellTokenBalanceForBatchId(bytes memory element, uint32 targetBatchIndex) public view returns (bytes memory) {\n        address user = getUser(element);\n        uint16 sellToken = getSellToken(element);\n        address sellTokenAddress = batchExchange.tokenIdToAddressMap(sellToken);\n        uint256 sellTokenBalance = getSellTokenBalance(element);\n        (uint256 depositAmount, uint32 depositBatch) = batchExchange.getPendingDeposit(user, sellTokenAddress);\n        // The deposit is not valid currently but will be valid at target batch, thus add to balance\n        if (depositBatch >= batchExchange.getCurrentBatchId() && depositBatch < targetBatchIndex) {\n            sellTokenBalance = sellTokenBalance.add(depositAmount);\n        }\n        (uint256 withdrawAmount, uint32 withdrawBatch) = batchExchange.getPendingWithdraw(user, sellTokenAddress);\n        // The withdraw is not valid currently but will be valid at target batch, thus subtract from balance\n        if (withdrawBatch >= batchExchange.getCurrentBatchId() && withdrawBatch < targetBatchIndex) {\n            sellTokenBalance = sellTokenBalance.sub(Math.min(sellTokenBalance, withdrawAmount));\n        }\n        return updateSellTokenBalance(element, sellTokenBalance);\n    }\n\n    /**\n     * @dev Queries the token information for the given tokenId. Can handle symbols of type string and bytes (e.g. MKR).\n     * Returns \"Unknown\" as symbol value if it cannot be retrieved and reverts if decimals can not be fetched\n     * (to avoid ambiguity with a \"valid\" value).\n     * @param tokenId the ID of a token listed on BatchExchange\n     * @return the address, symbol and decimals of the token contract\n     */\n    function getTokenInfo(uint16 tokenId)\n        public\n        view\n        returns (\n            address,\n            string memory symbol,\n            uint8 decimals\n        )\n    {\n        address tokenAddress = batchExchange.tokenIdToAddressMap(tokenId);\n        symbol = \"\";\n        (bool hasStringSymbol, ) = address(this).staticcall(\n            abi.encodeWithSignature(\"getTokenSymbolString(address)\", tokenAddress)\n        );\n        if (hasStringSymbol) {\n            symbol = getTokenSymbolString(tokenAddress);\n        } else {\n            (bool hasBytesSymbol, ) = address(this).staticcall(\n                abi.encodeWithSignature(\"getTokenSymbolBytes(address)\", tokenAddress)\n            );\n            if (hasBytesSymbol) {\n                symbol = getTokenSymbolBytes(tokenAddress);\n            }\n        }\n        return (tokenAddress, symbol, ERC20Detailed(tokenAddress).decimals());\n    }\n\n    /**\n     * @dev returns the symbol() of the given address assuming it is returned as a string.\n     * Reverts if method does not exist or returns data that is not a valid string.\n     * @param token the token address from which to receive the symbol\n     * @return the token's symbol\n     */\n    function getTokenSymbolString(address token) public view returns (string memory) {\n        return ERC20Detailed(token).symbol();\n    }\n\n    /**\n     * @dev returns the symbol() of the given address assuming it is returned as a bytes.\n     * Reverts if method does not exist or returns data that cannot be casted into a string.\n     * @param token the token address from which to receive the symbol\n     * @return the token's symbol converted into a trimmed (trailing 0 bytes remove) string.\n     */\n    function getTokenSymbolBytes(address token) public view returns (string memory) {\n        (bool success, bytes memory result) = token.staticcall(abi.encodeWithSignature(\"symbol()\"));\n        if (!success) {\n            revert(\"Cannot get symbol\");\n        }\n        //Find last non-zero byte\n        for (uint256 index = 0; index < result.length; index++) {\n            if (result[index] == 0) {\n                setLength(result, index);\n                break;\n            }\n        }\n        return string(result);\n    }\n\n    /**\n     * @dev Sets the length of the given buffer (truncating any items exceeding the length).\n     * Note, that this can lead to memory leakage or undefined behavior if length  is larger than the size\n     * that was originally allocated by the buffer.\n     */\n    function setLength(bytes memory buffer, uint256 length) public pure {\n        assembly {\n            mstore(buffer, length)\n        }\n    }\n\n    function copyInPlace(\n        bytes memory source,\n        bytes memory destination,\n        uint256 offset\n    ) public pure {\n        for (uint256 i = 0; i < source.length; i++) {\n            destination[offset + i] = source[i];\n        }\n    }\n\n    /** @dev Encodes the auction elements in the same format as BatchExchange.encodeAuctionElement with\n     * the only difference that order with tokens that match the token filter will be 0 serialized\n     * (as if they were deleted)\n     */\n    function encodeAuctionElement(\n        uint16[] memory tokenFilter,\n        address user,\n        bytes memory order,\n        bytes memory target,\n        uint256 offset\n    ) private view {\n        (\n            uint16 buyToken,\n            uint16 sellToken,\n            uint32 validFrom,\n            uint32 validUntil,\n            uint128 priceNumerator,\n            uint128 priceDenominator,\n            uint128 usedAmount\n        ) = abi.decode(order, (uint16, uint16, uint32, uint32, uint128, uint128, uint128));\n        // Unconditionally serialize user address to not break pagination\n        copyInPlace(abi.encodePacked(user), target, offset);\n        if (matchesTokenFilter(buyToken, sellToken, tokenFilter)) {\n            uint128 remainingAmount = priceDenominator - usedAmount;\n            uint256 sellTokenBalance = batchExchange.getBalance(user, batchExchange.tokenIdToAddressMap(sellToken));\n            copyInPlace(\n                abi.encodePacked(\n                    sellTokenBalance,\n                    buyToken,\n                    sellToken,\n                    validFrom,\n                    validUntil,\n                    priceNumerator,\n                    priceDenominator,\n                    remainingAmount\n                ),\n                target,\n                offset + ADDRESS_WIDTH\n            );\n        } else {\n            // NOTE: Ensure we write 0-s to the target memory location as we are\n            // reusing buffer and want to avoid stale data being left behind.\n            for (uint256 i = ADDRESS_WIDTH; i < AUCTION_ELEMENT_WIDTH; i++) {\n                target[i + offset] = 0;\n            }\n        }\n    }\n}\n",
  "sourcePath": "/home/travis/build/gnosis/dex-contracts/contracts/BatchExchangeViewer.sol",
  "compiler": {
    "name": "solc",
    "version": "0.5.10+commit.5a6ea5b1.Emscripten.clang"
  },
  "schemaVersion": "3.2.0",
  "updatedAt": "2020-06-29T16:38:56.697Z",
  "devdoc": {
    "methods": {
      "getEncodedOrdersPaginated(address,uint16,uint256)": {
        "details": "View returning byte-encoded sell orders in paginated form. It has the same behavior as BatchExchange.getEncodedUsersPaginated but uses less memory and thus is more gas efficient.",
        "params": {
          "pageSize": "uint determining the count of orders to be returned per page",
          "previousPageUser": "address of last user received in the previous page (address(0) for first page)",
          "previousPageUserOffset": "the number of orders received for the last user on the previous page (0 for first page)."
        },
        "return": "encoded bytes representing a page of orders ordered by (user, index)"
      },
      "getFilteredOrdersPaginated(uint32[3],uint16[],address,uint16,uint16)": {
        "details": "Queries a page in the list of all orders",
        "params": {
          "batchIds": "Triple with the following values [maxValidFrom, minValidUntil, sellBalanceTargetBatchIndex] Batched together as we are running out of local variables (Solidity does not compile with Stack too deep error)     - maxValidFrom: all returned orders will have a validFrom <= this value (they were placed at or before that batch)     - minValidUntil all returned orders will have a validUntil >= this value (validity ends at or after that batch)     - sellBalanceTargetBatchIndex the batchIndex at which we are expecting the sellTokenBalance to be valid (e.g. in the current live orderbook we want to include sellBalances that are valid in currentBatch + 1).",
          "maxPageSize": "maximum count of elements to be returned per page (same value is used for subqueries on the exchange)",
          "previousPageUser": "address taken from nextPageUser return value from last page (address(0) for first page)",
          "previousPageUserOffset": "offset taken nextPageUserOffset return value from last page (0 for first page)",
          "tokenFilter": "all returned order will have buy *and* sell token from this list (leave empty for \"no filter\")"
        },
        "return": "encoded bytes representing orders and page information for next page. Result can contain less elements than maxPageSize if remaining gas is low."
      },
      "getFinalizedOrderBook(address[])": {
        "details": "Queries the orderbook for the auction that is currently being solved",
        "params": {
          "tokenFilter": "all returned order will have buy *and* sell token from this list (leave empty for \"no filter\")"
        },
        "return": "encoded bytes representing orders, maxed at 5000 elements"
      },
      "getFinalizedOrderBookPaginated(address[],address,uint16,uint16)": {
        "details": "Queries a page of the orderbook for the auction that is currently being solved",
        "params": {
          "maxPageSize": "count of elements to be returned per page (same value is used for subqueries on the exchange)",
          "previousPageUser": "address taken from nextPageUser return value from last page (address(0) for first page)",
          "previousPageUserOffset": "offset taken nextPageUserOffset return value from last page (0 for first page)",
          "tokenFilter": "all returned order will have buy *and* sell token from this list (leave empty for \"no filter\")"
        },
        "return": "encoded bytes representing orders and page information for next page"
      },
      "getOpenOrderBook(address[])": {
        "details": "Queries the orderbook for the auction that is still accepting orders",
        "params": {
          "tokenFilter": "all returned order will have buy *and* sell token from this list (leave empty for \"no filter\")"
        },
        "return": "encoded bytes representing orders, maxed at 5000 elements"
      },
      "getOpenOrderBookPaginated(address[],address,uint16,uint16)": {
        "details": "Queries a page of the orderbook for the auction that is still accepting orders",
        "params": {
          "maxPageSize": "count of elements to be returned per page (same value is used for subqueries on the exchange)",
          "previousPageUser": "address taken from nextPageUser return value from last page (address(0) for first page)",
          "previousPageUserOffset": "offset taken nextPageUserOffset return value from last page (0 for first page)",
          "tokenFilter": "all returned order will have buy *and* sell token from this list (leave empty for \"no filter\")"
        },
        "return": "encoded bytes representing orders and page information for next page"
      },
      "getTokenInfo(uint16)": {
        "details": "Queries the token information for the given tokenId. Can handle symbols of type string and bytes (e.g. MKR). Returns \"Unknown\" as symbol value if it cannot be retrieved and reverts if decimals can not be fetched (to avoid ambiguity with a \"valid\" value).",
        "params": {
          "tokenId": "the ID of a token listed on BatchExchange"
        },
        "return": "the address, symbol and decimals of the token contract"
      },
      "getTokenSymbolBytes(address)": {
        "details": "returns the symbol() of the given address assuming it is returned as a bytes. Reverts if method does not exist or returns data that cannot be casted into a string.",
        "params": {
          "token": "the token address from which to receive the symbol"
        },
        "return": "the token's symbol converted into a trimmed (trailing 0 bytes remove) string."
      },
      "getTokenSymbolString(address)": {
        "details": "returns the symbol() of the given address assuming it is returned as a string. Reverts if method does not exist or returns data that is not a valid string.",
        "params": {
          "token": "the token address from which to receive the symbol"
        },
        "return": "the token's symbol"
      },
      "setLength(bytes,uint256)": {
        "details": "Sets the length of the given buffer (truncating any items exceeding the length). Note, that this can lead to memory leakage or undefined behavior if length  is larger than the size that was originally allocated by the buffer."
      }
    }
  },
  "userdoc": {
    "methods": {}
  }
}