{
  "contractName": "TokenOWL",
  "abi": [
    {
      "constant": true,
      "inputs": [],
      "name": "creator",
      "outputs": [
        {
          "name": "",
          "type": "address"
        }
      ],
      "payable": false,
      "stateMutability": "view",
      "type": "function"
    },
    {
      "constant": true,
      "inputs": [],
      "name": "name",
      "outputs": [
        {
          "name": "",
          "type": "string"
        }
      ],
      "payable": false,
      "stateMutability": "view",
      "type": "function"
    },
    {
      "constant": true,
      "inputs": [],
      "name": "minter",
      "outputs": [
        {
          "name": "",
          "type": "address"
        }
      ],
      "payable": false,
      "stateMutability": "view",
      "type": "function"
    },
    {
      "constant": false,
      "inputs": [
        {
          "name": "spender",
          "type": "address"
        },
        {
          "name": "value",
          "type": "uint256"
        }
      ],
      "name": "approve",
      "outputs": [
        {
          "name": "",
          "type": "bool"
        }
      ],
      "payable": false,
      "stateMutability": "nonpayable",
      "type": "function"
    },
    {
      "constant": true,
      "inputs": [],
      "name": "totalSupply",
      "outputs": [
        {
          "name": "",
          "type": "uint256"
        }
      ],
      "payable": false,
      "stateMutability": "view",
      "type": "function"
    },
    {
      "constant": false,
      "inputs": [
        {
          "name": "from",
          "type": "address"
        },
        {
          "name": "to",
          "type": "address"
        },
        {
          "name": "value",
          "type": "uint256"
        }
      ],
      "name": "transferFrom",
      "outputs": [
        {
          "name": "",
          "type": "bool"
        }
      ],
      "payable": false,
      "stateMutability": "nonpayable",
      "type": "function"
    },
    {
      "constant": true,
      "inputs": [],
      "name": "decimals",
      "outputs": [
        {
          "name": "",
          "type": "uint8"
        }
      ],
      "payable": false,
      "stateMutability": "view",
      "type": "function"
    },
    {
      "constant": true,
      "inputs": [
        {
          "name": "owner",
          "type": "address"
        }
      ],
      "name": "balanceOf",
      "outputs": [
        {
          "name": "",
          "type": "uint256"
        }
      ],
      "payable": false,
      "stateMutability": "view",
      "type": "function"
    },
    {
      "constant": true,
      "inputs": [],
      "name": "symbol",
      "outputs": [
        {
          "name": "",
          "type": "string"
        }
      ],
      "payable": false,
      "stateMutability": "view",
      "type": "function"
    },
    {
      "constant": true,
      "inputs": [],
      "name": "masterCopy",
      "outputs": [
        {
          "name": "",
          "type": "address"
        }
      ],
      "payable": false,
      "stateMutability": "view",
      "type": "function"
    },
    {
      "constant": false,
      "inputs": [
        {
          "name": "to",
          "type": "address"
        },
        {
          "name": "value",
          "type": "uint256"
        }
      ],
      "name": "transfer",
      "outputs": [
        {
          "name": "",
          "type": "bool"
        }
      ],
      "payable": false,
      "stateMutability": "nonpayable",
      "type": "function"
    },
    {
      "constant": true,
      "inputs": [
        {
          "name": "owner",
          "type": "address"
        },
        {
          "name": "spender",
          "type": "address"
        }
      ],
      "name": "allowance",
      "outputs": [
        {
          "name": "",
          "type": "uint256"
        }
      ],
      "payable": false,
      "stateMutability": "view",
      "type": "function"
    },
    {
      "anonymous": false,
      "inputs": [
        {
          "indexed": true,
          "name": "to",
          "type": "address"
        },
        {
          "indexed": false,
          "name": "amount",
          "type": "uint256"
        }
      ],
      "name": "Minted",
      "type": "event"
    },
    {
      "anonymous": false,
      "inputs": [
        {
          "indexed": true,
          "name": "from",
          "type": "address"
        },
        {
          "indexed": true,
          "name": "user",
          "type": "address"
        },
        {
          "indexed": false,
          "name": "amount",
          "type": "uint256"
        }
      ],
      "name": "Burnt",
      "type": "event"
    },
    {
      "anonymous": false,
      "inputs": [
        {
          "indexed": true,
          "name": "from",
          "type": "address"
        },
        {
          "indexed": true,
          "name": "to",
          "type": "address"
        },
        {
          "indexed": false,
          "name": "value",
          "type": "uint256"
        }
      ],
      "name": "Transfer",
      "type": "event"
    },
    {
      "anonymous": false,
      "inputs": [
        {
          "indexed": true,
          "name": "owner",
          "type": "address"
        },
        {
          "indexed": true,
          "name": "spender",
          "type": "address"
        },
        {
          "indexed": false,
          "name": "value",
          "type": "uint256"
        }
      ],
      "name": "Approval",
      "type": "event"
    },
    {
      "constant": false,
      "inputs": [
        {
          "name": "_masterCopy",
          "type": "address"
        }
      ],
      "name": "startMasterCopyCountdown",
      "outputs": [],
      "payable": false,
      "stateMutability": "nonpayable",
      "type": "function"
    },
    {
      "constant": false,
      "inputs": [],
      "name": "updateMasterCopy",
      "outputs": [],
      "payable": false,
      "stateMutability": "nonpayable",
      "type": "function"
    },
    {
      "constant": true,
      "inputs": [],
      "name": "getMasterCopy",
      "outputs": [
        {
          "name": "",
          "type": "address"
        }
      ],
      "payable": false,
      "stateMutability": "view",
      "type": "function"
    },
    {
      "constant": false,
      "inputs": [
        {
          "name": "newMinter",
          "type": "address"
        }
      ],
      "name": "setMinter",
      "outputs": [],
      "payable": false,
      "stateMutability": "nonpayable",
      "type": "function"
    },
    {
      "constant": false,
      "inputs": [
        {
          "name": "newOwner",
          "type": "address"
        }
      ],
      "name": "setNewOwner",
      "outputs": [],
      "payable": false,
      "stateMutability": "nonpayable",
      "type": "function"
    },
    {
      "constant": false,
      "inputs": [
        {
          "name": "to",
          "type": "address"
        },
        {
          "name": "amount",
          "type": "uint256"
        }
      ],
      "name": "mintOWL",
      "outputs": [],
      "payable": false,
      "stateMutability": "nonpayable",
      "type": "function"
    },
    {
      "constant": false,
      "inputs": [
        {
          "name": "user",
          "type": "address"
        },
        {
          "name": "amount",
          "type": "uint256"
        }
      ],
      "name": "burnOWL",
      "outputs": [],
      "payable": false,
      "stateMutability": "nonpayable",
      "type": "function"
    },
    {
      "constant": true,
      "inputs": [],
      "name": "getMasterCopyCountdown",
      "outputs": [
        {
          "name": "",
          "type": "address"
        },
        {
          "name": "",
          "type": "uint256"
        }
      ],
      "payable": false,
      "stateMutability": "view",
      "type": "function"
    }
  ],
  "bytecode": "0x608060405234801561001057600080fd5b50610e27806100206000396000f3fe608060405234801561001057600080fd5b5060043610610149576000357c01000000000000000000000000000000000000000000000000000000009004806370a08231116100ca578063f52a41f31161008e578063f52a41f314610373578063f5a1f5b41461039f578063f625ee28146103c5578063fca3b5aa146103eb578063ffa4e0c81461041157610149565b806370a08231146102e357806395d89b4114610309578063a619486e14610311578063a9059cbb14610319578063dd62ed3e1461034557610149565b806318160ddd1161011157806318160ddd1461023f57806323b872dd146102595780632cef4dac1461028f578063313ce567146102995780634417f4db146102b757610149565b806302d05d3f1461014e57806304e80e901461017257806306fdde031461017a57806307546172146101f7578063095ea7b3146101ff575b600080fd5b61015661043c565b60408051600160a060020a039092168252519081900360200190f35b61015661044b565b61018261045a565b6040805160208082528351818301528351919283929083019185019080838360005b838110156101bc5781810151838201526020016101a4565b50505050905090810190601f1680156101e95780820380516001836020036101000a031916815260200191505b509250505060405180910390f35b610156610491565b61022b6004803603604081101561021557600080fd5b50600160a060020a0381351690602001356104a0565b604080519115158252519081900360200190f35b610247610507565b60408051918252519081900360200190f35b61022b6004803603606081101561026f57600080fd5b50600160a060020a0381358116916020810135909116906040013561050d565b610297610628565b005b6102a1610735565b6040805160ff9092168252519081900360200190f35b610297600480360360408110156102cd57600080fd5b50600160a060020a03813516906020013561073a565b610247600480360360208110156102f957600080fd5b5035600160a060020a0316610851565b61018261086c565b6101566108a3565b61022b6004803603604081101561032f57600080fd5b50600160a060020a0381351690602001356108b2565b6102476004803603604081101561035b57600080fd5b50600160a060020a038135811691602001351661096d565b6102976004803603604081101561038957600080fd5b50600160a060020a038135169060200135610998565b610297600480360360208110156103b557600080fd5b5035600160a060020a0316610b26565b610297600480360360208110156103db57600080fd5b5035600160a060020a0316610ba1565b6102976004803603602081101561040157600080fd5b5035600160a060020a0316610c6f565b610419610cea565b60408051600160a060020a03909316835260208301919091528051918290030190f35b600654600160a060020a031681565b600054600160a060020a031690565b60408051808201909152600981527f4f574c20546f6b656e0000000000000000000000000000000000000000000000602082015281565b600754600160a060020a031681565b336000818152600260209081526040808320600160a060020a038716808552908352818420869055815186815291519394909390927f8c5be1e5ebec7d5bd14f71427d1e84f3dd0314c0f7b2291e5b200ac8c7c3b925928290030190a35060015b92915050565b60035490565b600160a060020a038316600090815260016020526040812054610536908363ffffffff610cfe16565b15806105735750600160a060020a0384166000908152600260209081526040808320338452909152902054610571908363ffffffff610cfe16565b155b806105a45750600160a060020a0383166000908152600160205260409020546105a2908363ffffffff610d0316565b155b156105b157506000610621565b600160a060020a038085166000818152600160208181526040808420805489900390556002825280842033855282528084208054899003905594881680845291815291849020805487019055835186815293519093600080516020610ddc83398151915292908290030190a35060015b9392505050565b600654600160a060020a031633146106745760405160e560020a62461bcd02815260040180806020018281038252602c815260200180610d44602c913960400191505060405180910390fd5b600454600160a060020a031615156106c05760405160e560020a62461bcd028152600401808060200182810382526027815260200180610d706027913960400191505060405180910390fd5b6005544210156107045760405160e560020a62461bcd028152600401808060200182810382526045815260200180610d976045913960600191505060405180910390fd5b6004546000805473ffffffffffffffffffffffffffffffffffffffff1916600160a060020a03909216919091179055565b601281565b600160a060020a038216600090815260026020908152604080832033845290915290205461076e908263ffffffff610d0a16565b600160a060020a0383166000818152600260209081526040808320338452825280832094909455918152600190915220546107af908263ffffffff610d0a16565b600160a060020a0383166000908152600160205260409020556003546107db908263ffffffff610d0a16565b600355604080518281529051600160a060020a0384169133917fe8a89cc6e5096f9d9f43de82c077c1f4cfe707c0e0c2032176c68813b9ae6a5c9181900360200190a3604080518281529051600091600160a060020a03851691600080516020610ddc8339815191529181900360200190a35050565b600160a060020a031660009081526001602052604090205490565b60408051808201909152600381527f4f574c0000000000000000000000000000000000000000000000000000000000602082015281565b600054600160a060020a031681565b336000908152600160205260408120546108d2908363ffffffff610cfe16565b15806109045750600160a060020a038316600090815260016020526040902054610902908363ffffffff610d0316565b155b1561091157506000610501565b33600081815260016020908152604080832080548790039055600160a060020a0387168084529281902080548701905580518681529051929392600080516020610ddc833981519152929181900390910190a350600192915050565b600160a060020a03918216600090815260026020908152604080832093909416825291909152205490565b600754600160a060020a031615156109fa576040805160e560020a62461bcd02815260206004820152601e60248201527f546865206d696e746572206d75737420626520696e697469616c697a65640000604482015290519081900360640190fd5b600754600160a060020a03163314610a5c576040805160e560020a62461bcd02815260206004820152601c60248201527f4f6e6c7920746865206d696e7465722063616e206d696e74204f574c00000000604482015290519081900360640190fd5b600160a060020a038216600090815260016020526040902054610a85908263ffffffff610d2716565b600160a060020a038316600090815260016020526040902055600354610ab1908263ffffffff610d2716565b600355604080518281529051600160a060020a038416917f30385c845b448a36257a6a1716e6ad2e1bc2cbe333cde1e69fe849ad6511adfe919081900360200190a2604080518281529051600160a060020a03841691600091600080516020610ddc8339815191529181900360200190a35050565b600654600160a060020a03163314610b725760405160e560020a62461bcd02815260040180806020018281038252602c815260200180610d44602c913960400191505060405180910390fd5b6006805473ffffffffffffffffffffffffffffffffffffffff1916600160a060020a0392909216919091179055565b600654600160a060020a03163314610bed5760405160e560020a62461bcd02815260040180806020018281038252602c815260200180610d44602c913960400191505060405180910390fd5b600160a060020a0381161515610c375760405160e560020a62461bcd028152600401808060200182810382526027815260200180610d706027913960400191505060405180910390fd5b6004805473ffffffffffffffffffffffffffffffffffffffff1916600160a060020a03929092169190911790554262278d0001600555565b600654600160a060020a03163314610cbb5760405160e560020a62461bcd02815260040180806020018281038252602c815260200180610d44602c913960400191505060405180910390fd5b6007805473ffffffffffffffffffffffffffffffffffffffff1916600160a060020a0392909216919091179055565b600454600554600160a060020a0390911691565b111590565b8101101590565b6000610d168383610cfe565b1515610d2157600080fd5b50900390565b6000610d338383610d03565b1515610d3e57600080fd5b50019056fe4f6e6c79207468652063726561746f722063616e20706572666f726d20746865207472616e73616374696f6e546865206d617374657220636f7079206d75737420626520612076616c6964206164647265737349742773206e6f7420706f737369626c6520746f2075706461746520746865206d617374657220636f707920647572696e67207468652077616974696e6720706572696f64ddf252ad1be2c89b69c2b068fc378daa952ba7f163c4a11628f55a4df523b3efa165627a7a723058201526f6ecb39910ef4b3a53a7326cc8b96898ad6bf64c335e452f08cb475d9f1d0029",
  "source": "pragma solidity ^0.5.2;\n\nimport \"@gnosis.pm/util-contracts/contracts/Math.sol\";\nimport \"@gnosis.pm/util-contracts/contracts/GnosisStandardToken.sol\";\nimport \"@gnosis.pm/util-contracts/contracts/Proxy.sol\";\n\ncontract TokenOWL is Proxied, GnosisStandardToken {\n    using GnosisMath for *;\n\n    string public constant name = \"OWL Token\";\n    string public constant symbol = \"OWL\";\n    uint8 public constant decimals = 18;\n\n    struct masterCopyCountdownType {\n        address masterCopy;\n        uint timeWhenAvailable;\n    }\n\n    masterCopyCountdownType masterCopyCountdown;\n\n    address public creator;\n    address public minter;\n\n    event Minted(address indexed to, uint256 amount);\n    event Burnt(address indexed from, address indexed user, uint256 amount);\n\n    modifier onlyCreator() {\n        // R1\n        require(msg.sender == creator, \"Only the creator can perform the transaction\");\n        _;\n    }\n    /// @dev trickers the update process via the proxyMaster for a new address _masterCopy\n    /// updating is only possible after 30 days\n    function startMasterCopyCountdown(address _masterCopy) public onlyCreator {\n        require(address(_masterCopy) != address(0), \"The master copy must be a valid address\");\n\n        // Update masterCopyCountdown\n        masterCopyCountdown.masterCopy = _masterCopy;\n        masterCopyCountdown.timeWhenAvailable = now + 30 days;\n    }\n\n    /// @dev executes the update process via the proxyMaster for a new address _masterCopy\n    function updateMasterCopy() public onlyCreator {\n        require(address(masterCopyCountdown.masterCopy) != address(0), \"The master copy must be a valid address\");\n        require(\n            block.timestamp >= masterCopyCountdown.timeWhenAvailable,\n            \"It's not possible to update the master copy during the waiting period\"\n        );\n\n        // Update masterCopy\n        masterCopy = masterCopyCountdown.masterCopy;\n    }\n\n    function getMasterCopy() public view returns (address) {\n        return masterCopy;\n    }\n\n    /// @dev Set minter. Only the creator of this contract can call this.\n    /// @param newMinter The new address authorized to mint this token\n    function setMinter(address newMinter) public onlyCreator {\n        minter = newMinter;\n    }\n\n    /// @dev change owner/creator of the contract. Only the creator/owner of this contract can call this.\n    /// @param newOwner The new address, which should become the owner\n    function setNewOwner(address newOwner) public onlyCreator {\n        creator = newOwner;\n    }\n\n    /// @dev Mints OWL.\n    /// @param to Address to which the minted token will be given\n    /// @param amount Amount of OWL to be minted\n    function mintOWL(address to, uint amount) public {\n        require(minter != address(0), \"The minter must be initialized\");\n        require(msg.sender == minter, \"Only the minter can mint OWL\");\n        balances[to] = balances[to].add(amount);\n        totalTokens = totalTokens.add(amount);\n        emit Minted(to, amount);\n        emit Transfer(address(0), to, amount);\n    }\n\n    /// @dev Burns OWL.\n    /// @param user Address of OWL owner\n    /// @param amount Amount of OWL to be burnt\n    function burnOWL(address user, uint amount) public {\n        allowances[user][msg.sender] = allowances[user][msg.sender].sub(amount);\n        balances[user] = balances[user].sub(amount);\n        totalTokens = totalTokens.sub(amount);\n        emit Burnt(msg.sender, user, amount);\n        emit Transfer(user, address(0), amount);\n    }\n\n    function getMasterCopyCountdown() public view returns (address, uint) {\n        return (masterCopyCountdown.masterCopy, masterCopyCountdown.timeWhenAvailable);\n    }\n}\n",
  "sourcePath": "/Users/anxo/code/gnosis/owl-token/contracts/TokenOWL.sol",
  "compiler": {
    "name": "solc",
    "version": "0.5.2+commit.1df8f40c.Emscripten.clang"
  },
  "schemaVersion": "3.0.1",
  "updatedAt": "2019-04-15T16:12:19.959Z",
  "devdoc": {
    "methods": {
      "allowance(address,address)": {
        "details": "Returns number of allowed tokens for given address",
        "params": {
          "owner": "Address of token owner",
          "spender": "Address of token spender"
        },
        "return": "Remaining allowance for spender"
      },
      "approve(address,uint256)": {
        "details": "Sets approved amount of tokens for spender. Returns success",
        "params": {
          "spender": "Address of allowed account",
          "value": "Number of approved tokens"
        },
        "return": "Was approval successful?"
      },
      "balanceOf(address)": {
        "details": "Returns number of tokens owned by given address",
        "params": {
          "owner": "Address of token owner"
        },
        "return": "Balance of owner"
      },
      "burnOWL(address,uint256)": {
        "details": "Burns OWL.",
        "params": {
          "amount": "Amount of OWL to be burnt",
          "user": "Address of OWL owner"
        }
      },
      "mintOWL(address,uint256)": {
        "details": "Mints OWL.",
        "params": {
          "amount": "Amount of OWL to be minted",
          "to": "Address to which the minted token will be given"
        }
      },
      "setMinter(address)": {
        "details": "Set minter. Only the creator of this contract can call this.",
        "params": {
          "newMinter": "The new address authorized to mint this token"
        }
      },
      "setNewOwner(address)": {
        "details": "change owner/creator of the contract. Only the creator/owner of this contract can call this.",
        "params": {
          "newOwner": "The new address, which should become the owner"
        }
      },
      "startMasterCopyCountdown(address)": {
        "details": "trickers the update process via the proxyMaster for a new address _masterCopy updating is only possible after 30 days"
      },
      "totalSupply()": {
        "details": "Returns total supply of tokens",
        "return": "Total supply"
      },
      "transfer(address,uint256)": {
        "details": "Transfers sender's tokens to a given address. Returns success",
        "params": {
          "to": "Address of token receiver",
          "value": "Number of tokens to transfer"
        },
        "return": "Was transfer successful?"
      },
      "transferFrom(address,address,uint256)": {
        "details": "Allows allowed third party to transfer tokens from one address to another. Returns success",
        "params": {
          "from": "Address from where tokens are withdrawn",
          "to": "Address to where tokens are sent",
          "value": "Number of tokens to transfer"
        },
        "return": "Was transfer successful?"
      },
      "updateMasterCopy()": {
        "details": "executes the update process via the proxyMaster for a new address _masterCopy"
      }
    }
  },
  "userdoc": {
    "methods": {}
  }
}