{
  "contractName": "TokenOWLProxy",
  "abi": [
    {
      "constant": true,
      "inputs": [],
      "name": "creator",
      "outputs": [
        {
          "name": "",
          "type": "address"
        }
      ],
      "payable": false,
      "stateMutability": "view",
      "type": "function"
    },
    {
      "constant": true,
      "inputs": [],
      "name": "name",
      "outputs": [
        {
          "name": "",
          "type": "string"
        }
      ],
      "payable": false,
      "stateMutability": "view",
      "type": "function"
    },
    {
      "constant": true,
      "inputs": [],
      "name": "minter",
      "outputs": [
        {
          "name": "",
          "type": "address"
        }
      ],
      "payable": false,
      "stateMutability": "view",
      "type": "function"
    },
    {
      "constant": false,
      "inputs": [
        {
          "name": "spender",
          "type": "address"
        },
        {
          "name": "value",
          "type": "uint256"
        }
      ],
      "name": "approve",
      "outputs": [
        {
          "name": "",
          "type": "bool"
        }
      ],
      "payable": false,
      "stateMutability": "nonpayable",
      "type": "function"
    },
    {
      "constant": true,
      "inputs": [],
      "name": "totalSupply",
      "outputs": [
        {
          "name": "",
          "type": "uint256"
        }
      ],
      "payable": false,
      "stateMutability": "view",
      "type": "function"
    },
    {
      "constant": false,
      "inputs": [
        {
          "name": "from",
          "type": "address"
        },
        {
          "name": "to",
          "type": "address"
        },
        {
          "name": "value",
          "type": "uint256"
        }
      ],
      "name": "transferFrom",
      "outputs": [
        {
          "name": "",
          "type": "bool"
        }
      ],
      "payable": false,
      "stateMutability": "nonpayable",
      "type": "function"
    },
    {
      "constant": true,
      "inputs": [],
      "name": "decimals",
      "outputs": [
        {
          "name": "",
          "type": "uint8"
        }
      ],
      "payable": false,
      "stateMutability": "view",
      "type": "function"
    },
    {
      "constant": true,
      "inputs": [
        {
          "name": "owner",
          "type": "address"
        }
      ],
      "name": "balanceOf",
      "outputs": [
        {
          "name": "",
          "type": "uint256"
        }
      ],
      "payable": false,
      "stateMutability": "view",
      "type": "function"
    },
    {
      "constant": true,
      "inputs": [],
      "name": "symbol",
      "outputs": [
        {
          "name": "",
          "type": "string"
        }
      ],
      "payable": false,
      "stateMutability": "view",
      "type": "function"
    },
    {
      "constant": true,
      "inputs": [],
      "name": "masterCopy",
      "outputs": [
        {
          "name": "",
          "type": "address"
        }
      ],
      "payable": false,
      "stateMutability": "view",
      "type": "function"
    },
    {
      "constant": false,
      "inputs": [
        {
          "name": "to",
          "type": "address"
        },
        {
          "name": "value",
          "type": "uint256"
        }
      ],
      "name": "transfer",
      "outputs": [
        {
          "name": "",
          "type": "bool"
        }
      ],
      "payable": false,
      "stateMutability": "nonpayable",
      "type": "function"
    },
    {
      "constant": true,
      "inputs": [
        {
          "name": "owner",
          "type": "address"
        },
        {
          "name": "spender",
          "type": "address"
        }
      ],
      "name": "allowance",
      "outputs": [
        {
          "name": "",
          "type": "uint256"
        }
      ],
      "payable": false,
      "stateMutability": "view",
      "type": "function"
    },
    {
      "inputs": [
        {
          "name": "proxied",
          "type": "address"
        }
      ],
      "payable": false,
      "stateMutability": "nonpayable",
      "type": "constructor"
    },
    {
      "payable": true,
      "stateMutability": "payable",
      "type": "fallback"
    },
    {
      "anonymous": false,
      "inputs": [
        {
          "indexed": true,
          "name": "from",
          "type": "address"
        },
        {
          "indexed": true,
          "name": "to",
          "type": "address"
        },
        {
          "indexed": false,
          "name": "value",
          "type": "uint256"
        }
      ],
      "name": "Transfer",
      "type": "event"
    },
    {
      "anonymous": false,
      "inputs": [
        {
          "indexed": true,
          "name": "owner",
          "type": "address"
        },
        {
          "indexed": true,
          "name": "spender",
          "type": "address"
        },
        {
          "indexed": false,
          "name": "value",
          "type": "uint256"
        }
      ],
      "name": "Approval",
      "type": "event"
    }
  ],
  "bytecode": "0x608060405234801561001057600080fd5b506040516020806107e18339810180604052602081101561003057600080fd5b505180600160a060020a03811615156100aa57604080517f08c379a000000000000000000000000000000000000000000000000000000000815260206004820152601b60248201527f546865206d617374657220636f70792069732072657175697265640000000000604482015290519081900360640190fd5b60008054600160a060020a03909216600160a060020a03199283161790556006805490911633179055506106fe806100e36000396000f3fe6080604052600436106100c4576000357c010000000000000000000000000000000000000000000000000000000090048063313ce56711610081578063313ce5671461027d57806370a08231146102a857806395d89b41146102db578063a619486e146102f0578063a9059cbb14610305578063dd62ed3e1461033e576100c4565b806302d05d3f146100f657806306fdde031461012757806307546172146101b1578063095ea7b3146101c657806318160ddd1461021357806323b872dd1461023a575b60008054600160a060020a03169036908037600080368184600019f43d6000803e8080156100f1573d6000f35b3d6000fd5b34801561010257600080fd5b5061010b610379565b60408051600160a060020a039092168252519081900360200190f35b34801561013357600080fd5b5061013c610388565b6040805160208082528351818301528351919283929083019185019080838360005b8381101561017657818101518382015260200161015e565b50505050905090810190601f1680156101a35780820380516001836020036101000a031916815260200191505b509250505060405180910390f35b3480156101bd57600080fd5b5061010b6103bf565b3480156101d257600080fd5b506101ff600480360360408110156101e957600080fd5b50600160a060020a0381351690602001356103ce565b604080519115158252519081900360200190f35b34801561021f57600080fd5b50610228610435565b60408051918252519081900360200190f35b34801561024657600080fd5b506101ff6004803603606081101561025d57600080fd5b50600160a060020a0381358116916020810135909116906040013561043b565b34801561028957600080fd5b50610292610568565b6040805160ff9092168252519081900360200190f35b3480156102b457600080fd5b50610228600480360360208110156102cb57600080fd5b5035600160a060020a031661056d565b3480156102e757600080fd5b5061013c610588565b3480156102fc57600080fd5b5061010b6105bf565b34801561031157600080fd5b506101ff6004803603604081101561032857600080fd5b50600160a060020a0381351690602001356105ce565b34801561034a57600080fd5b506102286004803603604081101561036157600080fd5b50600160a060020a038135811691602001351661069b565b600654600160a060020a031681565b60408051808201909152600981527f4f574c20546f6b656e0000000000000000000000000000000000000000000000602082015281565b600754600160a060020a031681565b336000818152600260209081526040808320600160a060020a038716808552908352818420869055815186815291519394909390927f8c5be1e5ebec7d5bd14f71427d1e84f3dd0314c0f7b2291e5b200ac8c7c3b925928290030190a35060015b92915050565b60035490565b600160a060020a038316600090815260016020526040812054610464908363ffffffff6106c616565b15806104a15750600160a060020a038416600090815260026020908152604080832033845290915290205461049f908363ffffffff6106c616565b155b806104d25750600160a060020a0383166000908152600160205260409020546104d0908363ffffffff6106cb16565b155b156104df57506000610561565b600160a060020a0380851660008181526001602081815260408084208054899003905560028252808420338552825280842080548990039055948816808452918152918490208054870190558351868152935190937fddf252ad1be2c89b69c2b068fc378daa952ba7f163c4a11628f55a4df523b3ef92908290030190a35060015b9392505050565b601281565b600160a060020a031660009081526001602052604090205490565b60408051808201909152600381527f4f574c0000000000000000000000000000000000000000000000000000000000602082015281565b600054600160a060020a031681565b336000908152600160205260408120546105ee908363ffffffff6106c616565b15806106205750600160a060020a03831660009081526001602052604090205461061e908363ffffffff6106cb16565b155b1561062d5750600061042f565b33600081815260016020908152604080832080548790039055600160a060020a03871680845292819020805487019055805186815290519293927fddf252ad1be2c89b69c2b068fc378daa952ba7f163c4a11628f55a4df523b3ef929181900390910190a350600192915050565b600160a060020a03918216600090815260026020908152604080832093909416825291909152205490565b111590565b810110159056fea165627a7a72305820faeebce2965fa8b4f4cf7871a1ad5356ff04d59a488bfd377338c637e4d67aed0029",
  "source": "pragma solidity ^0.5.2;\n\nimport \"@gnosis.pm/util-contracts/contracts/GnosisStandardToken.sol\";\nimport \"@gnosis.pm/util-contracts/contracts/Proxy.sol\";\n\ncontract TokenOWLProxy is Proxy, GnosisStandardToken {\n    using GnosisMath for *;\n\n    string public constant name = \"OWL Token\";\n    string public constant symbol = \"OWL\";\n    uint8 public constant decimals = 18;\n\n    struct masterCopyCountdownType {\n        address masterCopy;\n        uint timeWhenAvailable;\n    }\n\n    masterCopyCountdownType masterCopyCountdown;\n\n    address public creator;\n    address public minter;\n\n    /// @dev Constructor of the contract OWL, which distributes tokens\n    constructor(address proxied) public Proxy(proxied) {\n        creator = msg.sender;\n    }\n}\n",
  "sourcePath": "/Users/anxo/code/gnosis/owl-token/contracts/TokenOWLProxy.sol",
  "compiler": {
    "name": "solc",
    "version": "0.5.2+commit.1df8f40c.Emscripten.clang"
  },
  "schemaVersion": "3.0.1",
  "updatedAt": "2019-04-15T16:12:19.933Z",
  "devdoc": {
    "methods": {
      "allowance(address,address)": {
        "details": "Returns number of allowed tokens for given address",
        "params": {
          "owner": "Address of token owner",
          "spender": "Address of token spender"
        },
        "return": "Remaining allowance for spender"
      },
      "approve(address,uint256)": {
        "details": "Sets approved amount of tokens for spender. Returns success",
        "params": {
          "spender": "Address of allowed account",
          "value": "Number of approved tokens"
        },
        "return": "Was approval successful?"
      },
      "balanceOf(address)": {
        "details": "Returns number of tokens owned by given address",
        "params": {
          "owner": "Address of token owner"
        },
        "return": "Balance of owner"
      },
      "constructor": {
        "details": "Constructor of the contract OWL, which distributes tokens"
      },
      "totalSupply()": {
        "details": "Returns total supply of tokens",
        "return": "Total supply"
      },
      "transfer(address,uint256)": {
        "details": "Transfers sender's tokens to a given address. Returns success",
        "params": {
          "to": "Address of token receiver",
          "value": "Number of tokens to transfer"
        },
        "return": "Was transfer successful?"
      },
      "transferFrom(address,address,uint256)": {
        "details": "Allows allowed third party to transfer tokens from one address to another. Returns success",
        "params": {
          "from": "Address from where tokens are withdrawn",
          "to": "Address to where tokens are sent",
          "value": "Number of tokens to transfer"
        },
        "return": "Was transfer successful?"
      }
    }
  },
  "userdoc": {
    "methods": {}
  }
}